:020000040800F2
:1000000038090020B50100084D430008E139000817
:1000100031420008FD030008F54F00080000000011
:10002000000000000000000000000000C5460008BD
:100030000104000800000000BD430008DD4700087F
:10004000CF010008CF010008CF010008CF01000850
:10005000CF010008CF010008CF010008CF01000840
:10006000CF010008CF010008CF010008CF01000830
:10007000CF010008CF010008CF010008CF01000820
:10008000CF010008CF010008CF010008CF01000810
:10009000CF010008CF010008CF010008CF01000800
:1000A000CF0100087D480008CF010008CF010008FB
:1000B000CF010008CF010008CF010008CF010008E0
:1000C000CF010008CF010008CF010008CF010008D0
:1000D000CF010008CF010008CF010008CF010008C0
:1000E000CF010008CF010008CF01000800F002F89E
:1000F00000F050F814A696E8000CB244B344DA4578
:1001000001D100F047F8BAE80F000FA696E83000DA
:10011000A5EB040504EB0607AAEB0704A7F101070A
:100120004FEA15154FEA3414A4F10104AC4201D38F
:1001300000F030F813F0010F18BFFB1A43F0010371
:1001400000F001F8DBE718470C6500002C650000A3
:10015000103A24BF78C878C1FAD8520724BF30C8F3
:1001600030C144BF04680C60704700007047000055
:100170000023002400250026103A28BF78C1FBD8B0
:10018000520728BF30C148BF0B6070471FB51FBD65
:1001900010B510BD00F058F81146FFF7F7FF05F055
:1001A00065F800F076F803B4FFF7F2FF03BC00F047
:1001B0007DF800000948804709480047FEE7FEE750
:1001C000FEE7FEE7FEE7FEE7FEE7FEE7FEE7FEE707
:1001D00004480549054A064B704700007948000865
:1001E000ED00000838030020380900203805002001
:1001F000380500204FF0000200B51346944696469D
:10020000203922BFA0E80C50A0E80C50B1F1200129
:10021000BFF4F7AF090728BFA0E80C5048BF0CC0D7
:100220005DF804EB890028BF40F8042B08BF704735
:1002300048BF20F8022B11F0804F18BF00F8012BA7
:100240007047704770477047754600F02BF8AE4610
:1002500005006946534620F00700854618B020B5D2
:10026000FFF7B6FFBDE820404FF000064FF0000753
:100270004FF000084FF0000BAC46ACE8C009ACE80A
:10028000C009ACE8C009ACE8C00921F007018D46FF
:10029000704710B50446AFF300802046BDE810401B
:1002A000FFF781BF00487047100000200149182067
:1002B000ABBEFEE7260002007047000080B584B0A8
:1002C000029000200190029800688068C00770B317
:1002D000FFE702980168886820F00100886000F05C
:1002E000E7FF0190FFE7029800688068C007E8B167
:1002F000FFE700F0DDFF0199401A032815D3FFE75F
:10030000029800688068C00770B1FFE70299886AA8
:1003100040F0100088620299C86A40F00100C8628B
:1003200001208DF80F0006E0FFE7DCE7FFE7002083
:100330008DF80F00FFE79DF80F0004B080BD0000AE
:1003400080B584B00290002001900090029800686F
:100350008068C007002849D1FFE7029801688868D3
:1003600040F00100886040F20000C2F20000006826
:100370004DF68361C4F21B31A0FB0110800C00908C
:10038000FFE7009820B1FFE7009801380090F8E7F8
:1003900000F08EFF0190FFE7029800688068C007B8
:1003A00018BBFFE700F084FF0199401A03281BD314
:1003B000FFE7029800688068C007A0B9FFE70299CC
:1003C000886A40F0100088620299C86A40F0010013
:1003D000C862FFE70299002081F82400FFE70120AE
:1003E0008DF80F0006E0FFE7D6E7FFE700208DF865
:1003F0000F00FFE79DF80F0004B080BDFFE7FEE7A8
:100400007047000080B582B040F29810C2F2000040
:100410003C21019102F080FE019940F22820C2F2B5
:10042000000002F079FE02B080BD000080B582B00D
:1004300000F054F8009000F06BF801460098084472
:1004400005F032FF40F61371C3F6A85105F0ACFF7A
:100450004FF07C5105F0A8FF014640F2C820C2F2DF
:1004600000000160016840F2CC20C2F2000001905F
:10047000006805F06FFD0199086002B080BD0000C2
:1004800081B0EFF3108072B60090FFE7FEE7000046
:1004900080B586B005900598406802900598406840
:1004A000019005984169006A0490084605F07CFFB8
:1004B000019902460298039205F076FF01460398DF
:1004C00006F03EF84FF03F4105F06EFF049905F04D
:1004D0006BFF20F0004006B080BD000081B040F20C
:1004E0009810C2F200000068406AADF80200BDF842
:1004F000020040F27401C2F200010A88801AADF8CD
:100500000000BDF802000880BDF9000001B070478E
:1005100081B040F22820C2F200000068406AADF8C5
:100520000200BDF8020040F27601C2F200010A8822
:10053000801AADF80000BDF802000880BDF9000087
:1005400001B0704781B000208DF803008DF80300E2
:10055000FFE79DF8030003283EDCFFE79DF803104A
:1005600040F21030C2F2000030F811009DF8032074
:1005700040F21831C2F2000131F8121088420ADD4F
:10058000FFE79DF8032040F20831C2F2000100208D
:1005900021F8120019E09DF8031040F21830C2F261
:1005A000000030F811009DF8032040F21031C2F233
:1005B000000131F81210401A9DF8032040F2083172
:1005C000C2F2000121F81200FFE7FFE79DF80300E7
:1005D00001308DF80300BCE740F20830C2F20000A1
:1005E000018840F27202C2F200021180418840F29A
:1005F0008602C2F200021180818840F28402C2F2B7
:1006000000021180C08840F27001C2F2000108802F
:1006100001B0704786B00490039100208DF80B0064
:1006200001900498806808B1FFE7FFE7FFE70498AE
:1006300090F82400012804D1FFE702208DF817006C
:1006400077E10499012081F82400FFE7FFE704988F
:100650008068E0B9FFE70398406801280DD1FFE703
:1006600004980068806B6FF315000399096840EAED
:10067000C13004990968886308E00499886A40F0E9
:100680002000886201208DF80B00FFE739E0039914
:100690004868096988421FD8FFE704980068806BA2
:1006A000039B1A685968D3F810C0A1EB0C0101EB49
:1006B000810101F10F031F219940884320F440106C
:1006C0000021CFF6F07101EB0C519A401143084321
:1006D00004990968886313E004980068806B039AA2
:1006E00051681269891A01EB810101F10F021F2182
:1006F0009140884320F44010049909688863FFE71B
:10070000FFE7049800688068C00768B9FFE70498AD
:100710000068806847F201018843039989690843AA
:10072000049909688860FFE70398407D012817D184
:10073000FFE703988069B0F5E04F07D1FFE7049821
:100740000168486840F48060486008E00499886A5D
:1007500040F02000886201208DF80B00FFE7FFE7E2
:100760000398007D012815D1FFE70398407D38B933
:10077000FFE704980168486840F48050486008E04A
:100780000499886A40F02000886201208DF80B00EF
:10079000FFE7FFE7039800680A2812D3FFE70498F1
:1007A0000068C06803990A68896802EB42021E3A31
:1007B0000723934098439140084304990968C8600F
:1007C00010E004980068006903990A68896802EBE0
:1007D00042020723934098439140084304990968D3
:1007E0000861FFE703980068102805D0FFE7039829
:1007F0000068112807D1FFE704980168886840F471
:1008000000008860FFE703984068013801460091C6
:1008100003282CD80099DFE801F0020F1C29049866
:100820000068406940F6FF7188430399C96808432E
:1008300004990968486127E004980068806940F6D7
:10084000FF7188430399C96808430499096888615E
:100850001AE004980068C06940F6FF718843039964
:10086000C968084304990968C8610DE0FFE7049866
:100870000068006A40F6FF7188430399C96808431D
:10088000049909680862FFE703980068102805D0FA
:10089000FFE703980068112840D1FFE7049800683B
:1008A00042F20041C4F2010188422DD1FFE70498D1
:1008B000006880680002002825D4FFE704980168DA
:1008C000886840F40000886003980068102819D1F7
:1008D000FFE740F20000C2F2000000684DF68361BD
:1008E000C4F21B31A0FB0110800C00EB8000400023
:1008F0000190FFE7019820B1FFE7019801380190CE
:10090000F8E7FFE7FFE708E00499886A40F0200075
:10091000886201208DF80B00FFE7FFE7FFE70499ED
:10092000002081F82400FFE79DF80B008DF81700E8
:10093000FFE79DF8170006B07047000084B00390F1
:10094000029100200190029801380146009103288D
:1009500014D80099DFE801F0110C07020398006831
:10096000806C01900FE003980068406C01900AE0F1
:1009700003980068006C019005E0FFE703980068A9
:10098000C06B0190FFE7019804B0704780B584B058
:10099000029000208DF80700FFE7029890F82400ED
:1009A000012804D1FFE702208DF80F008FE00299A3
:1009B000012081F82400FFE7FFE70298FFF7C0FC61
:1009C0008DF807009DF80700002874D1FFE7029812
:1009D000806A40F4805042F20101884302998862A3
:1009E0000298006842F60001C4F20101884209D170
:1009F000FFE742F20440C4F20100006810F4702FD7
:100A000003D008E0002030B9FFE70299886A20F49B
:100A10008010886205E00299886A40F4801088623C
:100A2000FFE70298806AC005002804D4FFE7029916
:100A30000020C862FFE7FFE70299002081F8240048
:100A4000FFE7029801686FF00400086002980068F0
:100A50004068400500282DD4FFE7029800688068B0
:100A600000F4E040B0F5E04F1CD1FFE702980068C9
:100A700042F60001C4F20101884209D1FFE742F2C7
:100A80000440C4F20100006810F4702F03D009E0A4
:100A9000002038B9FFE702980168886840F4021026
:100AA000886006E002980168886840F40040886029
:100AB000FFE7FFE706E0FFE70299002081F8240046
:100AC000FFE7FFE79DF807008DF80F00FFE79DF8AF
:100AD0000F0004B080BD000085B00390029100209B
:100AE0008DF807000090FFE7039890F82400012894
:100AF00004D1FFE702208DF81300C3E00399012021
:100B000081F82400FFE7FFE702984068062812D822
:100B1000FFE703980068406B029A1168526802EB85
:100B20008202053A1F23934098439140084303995A
:100B30000968486329E0029840680C2812D8FFE74A
:100B400003980068006B029A1168526802EB8202F7
:100B5000233A1F239340984391400843039909681F
:100B6000086311E003980068C06A029A116852682D
:100B700002EB8202413A1F2393409843914008437D
:100B800003990968C862FFE7FFE7029800680A282E
:100B900012D3FFE703980068C06802990A68896861
:100BA00002EB42021E3A07239340984391400843C8
:100BB00003990968C86010E0039800680069029909
:100BC0000A68896802EB42020723934098439140E8
:100BD0000843039909680861FFE702980068102834
:100BE00005D0FFE702980068112840D1FFE703987D
:100BF000006842F20041C4F2010188422DD1FFE7B2
:100C00000398006880680002002825D4FFE7039855
:100C10000168886840F40000886002980068102825
:100C200019D1FFE740F20000C2F2000000684DF663
:100C30008361C4F21B31A0FB0110800C00EB80002B
:100C400040000090FFE7009820B1FFE700980138CE
:100C50000090F8E7FFE7FFE708E00399886A40F0B3
:100C60002000886201208DF80700FFE7FFE7FFE71B
:100C70000399002081F82400FFE79DF807008DF814
:100C80001300FFE79DF8130005B0704780B588B0EA
:100C9000069000208DF817000490039002900698AB
:100CA00020B9FFE701208DF81F00F4E00698806866
:100CB00030B1FFE70698007D08B1FFE7FFE7FFE7E7
:100CC0000698806A50B9FFE706990020C862069925
:100CD00081F82400069800F0E3F8FFE70698FFF794
:100CE000EDFA8DF817000698806AC006002800F11A
:100CF000C480FFE79DF81700002840F0BE80FFE7A2
:100D00000698806A40F0020020F4885006998862B4
:100D100006994868CA691043097B40EA4101039873
:100D200008430390069881680120B1F5807F019007
:100D300008D0FFE7069880680138B0FA80F04009D3
:100D40000190FFE701990498CA0740F48071002AD6
:100D500018BF084604900698007D01281ED1FFE7C1
:100D60000698007B70B9FFE7069881694EF2000093
:100D7000CFF6FF7000EB41300499084340F4006067
:100D800004900AE00699886A40F02000886206997B
:100D9000C86A40F00100C862FFE7FFE706980068F4
:100DA000406820F46940049908430699096848603E
:100DB0000698006880684FF2FD71CFF6E171084037
:100DC000039908430699096888600698816801209C
:100DD000B1F5807F009008D0FFE706988068013861
:100DE000B0FA80F040090090FFE7009800F00100A1
:100DF000002818BF4FF48070B0F5807F09D1FFE75D
:100E0000069801690020CFF6F07000EB01500290C7
:100E1000FFE706980068C06A20F470000299084352
:100E200006990968C86206980068806840F6FE6105
:100E3000CFF61F710840039988420CD1FFE706994D
:100E40000020C8620698806A40F0010020F002008D
:100E50000699886210E00698806A40F0100020F041
:100E60000200069988620699C86A40F00100C862CB
:100E700001208DF81700FFE708E00699886A40F026
:100E80001000886201208DF81700FFE79DF8170019
:100E90008DF81F00FFE79DF81F0008B080BD00001F
:100EA00080B588B0079000200690059004900390CC
:100EB0000798006842F20041C4F2010188422AD139
:100EC000FFE7FFE741F21800C4F20200016841F4B5
:100ED00000710160006800F4007002900298FFE762
:100EE000FFE741F21800C4F20200016841F004017A
:100EF0000160006800F0040001900198FFE73D20C8
:100F000003900320049040F60000C4F2010003A9FE
:100F100000F026F8FFE708B080BD000080B584B07F
:100F2000039000F0C5F902900398019001980130F8
:100F300048B1FFE740F20500C2F2000001780198D5
:100F400008440190FFE7FFE700F0B2F90299401A68
:100F50000199884201D2FFE7F6E704B080BD0000A6
:100F600090B00F900E9100200D900990FFE70E9821
:100F700000680D99C840002800F07F81FFE70D99B7
:100F8000012088400C900E9800680C9908400B9046
:100F90000B980C99884240F06C81FFE70E984068EE
:100FA0000590002851D0FFE7059801283AD0FFE7C7
:100FB000059802283FD0FFE7059803285FD0FFE798
:100FC0000598112832D0FFE70598122838D0FFE79E
:100FD00005980021C1F21101884236D0FFE705983B
:100FE0000021C1F2120188422FD0FFE705980021AD
:100FF000C1F22101884228D0FFE705980021C1F203
:101000002201884221D0FFE705980021C1F2310179
:1010100088421AD0FFE705980021C1F232018842C8
:1010200013D02FE00E98C06809902CE00E98C0688D
:101030000430099027E00E98C0680830099022E03B
:101040000E98C0680C3009901DE00E98806818B9A1
:10105000FFE70420099011E00E988068012806D16E
:10106000FFE7082009900C980F99086105E0082017
:1010700009900C980F994861FFE7FFE703E0002013
:10108000099000E0FFE70B98FF2803D8FFE70F98CF
:10109000049003E00F9804300490FFE70498089050
:1010A0000B98FF2804D8FFE70D988000039006E016
:1010B0000D996FF01F0000EB81000390FFE703988C
:1010C000079008980068079A0F2191408843099972
:1010D00091400843089908600E98C079C00600281E
:1010E00040F1C680FFE7FFE741F21800C4F20200BA
:1010F000016841F001010160006800F00100069004
:101100000698FFE70D9820F003000821C4F20101C2
:1011100040580A900D9800F0030081000F2000FA5B
:1011200001F10A9888430A900F9840F60001C4F232
:101130000101884203D1FFE70020029026E00F98CA
:1011400040F60041C4F20101884203D1FFE70120CB
:10115000019018E00F9841F20001C4F201018842A9
:1011600003D1FFE7022000900AE00F9941F200420C
:10117000C4F201020420914208BF03200090FFE75F
:1011800000980190FFE701980290FFE702980D99FF
:1011900001F00301890000FA01F10A9808430A905E
:1011A0000A980D9921F003010822C4F20102885027
:1011B0000E988079C006002809D5FFE70B9A40F207
:1011C0000841C4F2010108681043086008E00B9A66
:1011D00040F20841C4F20101086890430860FFE74B
:1011E0000E9880798006002809D5FFE70B9A40F217
:1011F0000C41C4F2010108681043086008E00B9A32
:1012000040F20C41C4F20101086890430860FFE716
:101210000E9880798007002809D5FFE70B9A40F2E5
:101220000441C4F2010108681043086008E00B9A09
:1012300040F20441C4F20101086890430860FFE7EE
:101240000E988079C00748B1FFE70B9A40F2004141
:10125000C4F2010108681043086008E00B9A40F2EC
:101260000041C4F20101086890430860FFE7FFE70E
:10127000FFE70D9801300D9079E610B0704700003F
:1012800082B00190ADF802108DF801209DF80100A8
:1012900028B1FFE7BDF802000199086105E0BDF83B
:1012A0000200000401990861FFE702B070470000E6
:1012B00040F22430C2F200000068704740F205009E
:1012C000C2F20000027840F22431C2F20001086844
:1012D000104408607047000080B542F20001C4F27B
:1012E0000201086840F010000860032000F096F842
:1012F0000F2000F005F800F03BF8002080BD000052
:1013000080B582B0009040F20000C2F20000006898
:1013100040F20501C2F200010A784FF47A71B1FB84
:10132000F2F1B0FBF1F001F08FFB20B1FFE70120FB
:101330008DF8070018E000980F280DD8FFE70099F6
:101340004FF0FF30002200F04FF8009840F2080103
:10135000C2F20001086003E001208DF8070003E0FD
:1013600000208DF80700FFE79DF8070002B080BD60
:1013700083B0FFE741F21800C4F20200016841F0B7
:1013800001010160006800F0010002900298FFE78F
:10139000FFE741F21C00C4F20200016841F08051F5
:1013A0000160006800F0805001900198FFE7FFE7BE
:1013B0000421C4F2010108680090009820F0E06068
:1013C0000090009840F00070009000980860FFE7DF
:1013D00003B0704780B582B08DF807009DF9070013
:1013E00003F00AFE02B080BD80B586B08DF817000C
:1013F000049103920020029003F016FE02909DF9E2
:101400001700019002980499039A02F0A1FF014687
:10141000019803F011FE06B080BD000080B582B0D7
:101420000190019803F02AFE02B080BD80B586B01D
:10143000049000200390029004980078C0070028D0
:1014400000F0AC80FFE700208DF8070041F21C009F
:10145000C4F202000068C000002813D4FFE7FFE7D1
:1014600041F21C00C4F20200016841F080510160A9
:10147000006800F0805000900098FFE701208DF890
:101480000700FFE747F20000C4F200000068C00553
:10149000002822D4FFE747F20001C4F200010868E7
:1014A00040F480700860FFF703FF0390FFE747F206
:1014B0000000C4F200000068C00500280CD4FFE75B
:1014C000FFF7F6FE0399401A652804D3FFE70320CF
:1014D0008DF817008AE0EAE7FFE741F22000C4F246
:1014E0000200006800F4407002900298E0B3FFE749
:1014F00002980499496801F44071884234D0FFE7AA
:1015000041F22001C4F20201086820F44070029008
:1015100040F24042C4F242220120106000201060DC
:10152000029808609DF80800C007E0B1FFE7FFF7E8
:10153000BFFE0390FFE741F22000C4F20200006802
:10154000800700280ED4FFE7FFF7B2FE0399401A88
:1015500041F28931884204D3FFE703208DF8170058
:1015600044E0E8E7FFE7FFE741F22001C4F20201AF
:10157000086820F44070049A5268104308609DF88F
:101580000700012809D1FFE741F21C01C4F2020162
:10159000086820F080500860FFE7FFE704980078B3
:1015A000800700280CD5FFE741F20401C4F20201D4
:1015B000086820F44040049A926810430860FFE7EE
:1015C00004980078C00600280CD5FFE741F204011A
:1015D000C4F20201086820F48000049AD268104323
:1015E0000860FFE700208DF81700FFE79DF817005F
:1015F00006B080BD80B584B002900191029820B9F8
:10160000FFE701208DF80F001BE1019842F2000175
:10161000C4F20201096801F00701884216D9FFE708
:1016200042F20000C4F20200016821F00701019AB1
:1016300011430160006800F007000199884204D05E
:10164000FFE701208DF80F00FBE0FFE7029800782C
:10165000800700282AD5FFE7029800784007002875
:1016600009D5FFE741F20401C4F20201086840F421
:10167000E0600860FFE7029800780007002809D5BD
:10168000FFE741F20401C4F20201086840F460502F
:101690000860FFE741F20401C4F20201086820F08B
:1016A000F000029A926810430860FFE70298007801
:1016B000C007002860D0FFE70298406801280ED1DB
:1016C000FFE741F20000C4F2020000688003002836
:1016D00004D4FFE701208DF80F00B2E021E002986A
:1016E000406802280ED1FFE741F20000C4F2020078
:1016F00000688001002804D4FFE701208DF80F0066
:101700009FE00DE041F20000C4F202000068800793
:10171000002804D4FFE701208DF80F0091E0FFE7D7
:10172000FFE741F20401C4F20201086820F003005F
:10173000029A526810430860FFF7BAFD0090FFE775
:1017400041F20400C4F20200006800F00C000299AB
:101750004968B0EB810F0ED0FFE7FFF7A9FD0099B4
:10176000401A41F28931884204D3FFE703208DF803
:101770000F0066E0E4E7FFE7019842F20001C4F2DF
:101780000201096801F00701884216D2FFE742F220
:101790000000C4F20200016821F00701019A114320
:1017A0000160006800F007000199884204D0FFE75B
:1017B00001208DF80F0044E0FFE702980078400711
:1017C00000280CD5FFE741F20401C4F202010868C9
:1017D00020F4E060029AD26810430860FFE70298A4
:1017E0000078000700280DD5FFE741F20401C4F29C
:1017F0000201086820F46050029A126940EAC200AF
:101800000860FFE700F04CF841F20401C4F2020165
:101810000968C9B20A0946F22A61C0F60001895C6A
:10182000C84040F20001C2F20001086040F2080026
:10183000C2F200000068FFF763FD00208DF80F0082
:10184000FFE79DF80F0004B080BD000040F20000EB
:10185000C2F200000068704780B5FFF7F7FF41F261
:101860000401C4F202010968C1F3022246F23A619E
:10187000C0F60001895CC84080BD000080B5FFF75C
:10188000E5FF41F20401C4F202010968C1F3C2227A
:1018900046F23A61C0F60001895CC84080BD000094
:1018A00086B000200590049003900290019041F2D0
:1018B0000400C4F2020000680590059800F00C00D6
:1018C0000146009100283FD0FFE70098042804D08B
:1018D000FFE70098082806D037E041F20020C0F268
:1018E0007A00019037E00598C0F3834146F24260E8
:1018F000C0F60000405C02909DF81600C007C0B121
:10190000FFE741F20400C4F202000068C0F3404166
:1019100046F25260C0F60000405C0490029841F22A
:101920000021C0F27A0148430499B0FBF1F0039022
:1019300007E0029840F60011C0F23D0148430390D1
:10194000FFE70398019006E0FFE741F20020C0F2B4
:101950007A000190FFE7019806B0704780B586B025
:101960000490049820B9FFE701208DF817002EE3BA
:1019700004980078C007002800F0AE80FFE741F22D
:101980000400C4F20200006800F00C00042813D028
:10199000FFE741F20400C4F20200006800F00C000E
:1019A00008281BD1FFE741F20400C4F202000068DE
:1019B000C003002812D5FFE741F20000C4F2020084
:1019C00000688003002808D5FFE70498406820B924
:1019D000FFE701208DF81700F9E27CE0FFE70498AB
:1019E0004068B0F5803F09D1FFE741F20001C4F241
:1019F0000201086840F48030086032E004984068D2
:101A000068B9FFE741F20001C4F20201086820F45E
:101A100080300860086820F48020086020E0049886
:101A20004068B0F5A02F0DD1FFE741F20001C4F2EC
:101A30000201086840F480200860086840F48030A3
:101A400008600CE041F20001C4F20201086820F4D1
:101A500080300860086820F480200860FFE7FFE716
:101A6000FFE7FFE704984068D0B1FFE7FFF720FCED
:101A70000390FFE741F20000C4F202000068800317
:101A800000280CD4FFE7FFF713FC0399401A6528E0
:101A900004D3FFE703208DF8170098E2EAE719E086
:101AA000FFF706FC0390FFE741F20000C4F20200DA
:101AB0000068800300280CD5FFE7FFF7F9FB0399C6
:101AC000401A652804D3FFE703208DF817007EE253
:101AD000EAE7FFE7FFE7FFE70498007880070028C0
:101AE00040F18D80FFE741F20400C4F2020000687B
:101AF00010F00C0F13D0FFE741F20400C4F2020013
:101B0000006800F00C00082829D1FFE741F204002A
:101B1000C4F202000068C003002820D4FFE741F2AD
:101B20000000C4F2020000688007002809D5FFE722
:101B300004980069012804D0FFE701208DF8170000
:101B400045E241F20001C4F20201086820F0F80009
:101B5000049A526940EAC2000860FFE74EE0049828
:101B6000006958B3FFE70021C4F242210120086058
:101B7000FFF79EFB0390FFE741F20000C4F2020072
:101B80000068800700280CD4FFE7FFF791FB03995A
:101B9000401A032804D3FFE703208DF8170016E24C
:101BA000EAE741F20001C4F20201086820F0F800FF
:101BB000049A526940EAC20008601EE00021C4F2A3
:101BC000422100200860FFF773FB0390FFE741F21A
:101BD0000000C4F202000068800700280CD5FFE76F
:101BE000FFF766FB0399401A032804D3FFE703209D
:101BF0008DF81700EBE1EAE7FFE7FFE7FFE704985E
:101C000000780007002848D5FFE70498806918B3DA
:101C1000FFE740F28041C4F2422101200860FFF753
:101C200047FB0390FFE741F22400C4F20200006882
:101C3000800700280CD4FFE7FFF73AFB0399401A0E
:101C4000032804D3FFE703208DF81700BFE1EAE77C
:101C5000012002F0B5FB1FE040F28041C4F24221B6
:101C600000200860FFF724FB0390FFE741F2240007
:101C7000C4F202000068800700280CD5FFE7FFF7D8
:101C800017FB0399401A032804D3FFE703208DF8BC
:101C900017009CE1EAE7FFE7FFE7049800784007B8
:101CA000002840F1D880FFE700208DF8070041F2BE
:101CB0001C00C4F202000068C000002813D4FFE733
:101CC000FFE741F21C00C4F20200016841F08051BC
:101CD0000160006800F0805000900098FFE701204C
:101CE0008DF80700FFE747F20000C4F2000000682B
:101CF000C005002822D4FFE747F20001C4F200012A
:101D0000086840F480700860FFF7D2FA0390FFE79C
:101D100047F20000C4F200000068C00500280CD49F
:101D2000FFE7FFF7C5FA0399401A652804D3FFE7D8
:101D300003208DF817004AE1EAE7FFE7FFE7049880
:101D4000C068012809D1FFE741F22001C4F2020175
:101D5000086840F00100086031E00498C06868B984
:101D6000FFE741F22001C4F20201086820F00100FF
:101D70000860086820F0040008601FE00498C0684C
:101D800005280DD1FFE741F22001C4F202010868E5
:101D900040F004000860086840F0010008600CE0B2
:101DA00041F22001C4F20201086820F0010008603D
:101DB000086820F004000860FFE7FFE7FFE7FFE79F
:101DC0000498C068E0B1FFE7FFF772FA0390FFE7FD
:101DD00041F22000C4F202000068800700280ED4FF
:101DE000FFE7FFF765FA0399401A41F2893188420B
:101DF00004D3FFE703208DF81700E8E0E8E71BE0D5
:101E0000FFF756FA0390FFE741F22000C4F2020008
:101E10000068800700280ED5FFE7FFF749FA03990D
:101E2000401A41F28931884204D3FFE703208DF83C
:101E30001700CCE0E8E7FFE79DF80700012809D18B
:101E4000FFE741F21C01C4F20201086820F0805053
:101E50000860FFE7FFE70498C069002800F0B3803E
:101E6000FFE741F20400C4F20200006800F00C0039
:101E7000082800F08280FFE70498C06902285CD13E
:101E8000FFE76021C4F2422100200860FFF710FA4A
:101E90000390FFE741F20000C4F2020000688001F5
:101EA00000280CD5FFE7FFF703FA0399401A03282F
:101EB00004D3FFE703208DF8170088E0EAE70498D1
:101EC000006AB0F5803F0CD1FFE741F20401C4F293
:101ED0000201086820F40030049A926810430860F8
:101EE000FFE741F20401C4F20201086820F4741013
:101EF000049B1A6A5B6A1A43104308606021C4F2AB
:101F0000422101200860FFF7D3F90390FFE741F277
:101F10000000C4F202000068800100280CD4FFE732
:101F2000FFF7C6F90399401A032804D3FFE70320FB
:101F30008DF817004BE0EAE71EE06021C4F2422171
:101F400000200860FFF7B4F90390FFE741F20000BA
:101F5000C4F202000068800100280CD5FFE7FFF7FB
:101F6000A7F90399401A032804D3FFE703208DF84B
:101F700017002CE0EAE7FFE724E00498C069012895
:101F800004D1FFE701208DF8170020E041F20400A2
:101F9000C4F2020000680290029800F480300499B4
:101FA000096A884208D1FFE7029800F4701004998A
:101FB000496A884204D0FFE701208DF8170006E047
:101FC000FFE7FFE7FFE700208DF81700FFE79DF828
:101FD000170006B080BD000080B584B00290029862
:101FE00020B9FFE701208DF80F006EE00298406AEB
:101FF00060B9FFE702984068B0F5827F01D1FFE742
:1020000003E002990020C861FFE705E00299002083
:10201000086102994861FFE70299002088620298EE
:1020200090F8510040B9FFE70299002081F8500074
:10203000029800F04FF8FFE70299022081F8510062
:1020400002980168086820F040000860029A019236
:1020500011685068D2F808C0D36800F482700CF49C
:10206000044C604403F400631844136903F0020352
:102070001844536903F001031844936903F400738F
:102080001844D36903F038031844136A03F080033B
:102090001843926A02F400521043086002980168E3
:1020A0008269042000EA1240486002980168C86909
:1020B00020F40060C861029900204865029A01215D
:1020C00082F851108DF80F00FFE79DF80F0004B063
:1020D00080BD000080B58AB009900020089007906C
:1020E000069005900998006843F60001C4F20001CB
:1020F000884239D1FFE7FFE741F21C00C4F2020039
:10210000016841F480410160006800F4804004905F
:102110000498FFE7FFE741F21800C4F202000168EB
:1021200041F008010160006800F008000390039886
:10213000FFE74FF42040059002200690032008900E
:1021400040F60040C4F20100019005A90291FEF79B
:1021500007FF019802994FF48042059200220692EF
:102160000792FEF7FDFEFFE70AB080BD80B588B09C
:1021700006900591ADF812200393069890F851004F
:10218000012804D0FFE702208DF81F0011E1069816
:102190004068B0F5827F16D1FFE70698806890B955
:1021A000FFE70699042081F851000698059ABDF8CA
:1021B00012300399EC46CCF80010114600F050FAAA
:1021C0008DF81F00F5E0FFF773F80290059820B135
:1021D000FFE7BDF8120020B9FFE701208DF81F00CE
:1021E000E7E0FFE7069890F85000012804D1FFE7E8
:1021F00002208DF81F00DCE00699012081F85000D4
:10220000FFE7FFE70699042081F8510006990020B6
:1022100048650599069A9163BDF81210069A918750
:10222000BDF81210069AD187069908630699888628
:102230000699C886069908640699486406988068D5
:10224000B0F5004F0DD1FFE706980168086820F04F
:102250004000086006980168086820F48040086023
:10226000FFE706980068006800F04000402807D0AB
:10227000FFE706980168086840F040000860FFE743
:102280000698C068D0BBFFE7FFE70698C08FA0B3F1
:10229000FFE7069800688068C00778B1FFE70698F6
:1022A0000068007B0699896B08700699886B01307D
:1022B00088630699C88F0138C8871DE0FEF7F8FFCC
:1022C0000299401A0399884204D3FFE7039801302A
:1022D00018B9FFE7039870B9FFE70699012081F864
:1022E0005100FFE70699002081F85000FFE7032026
:1022F0008DF81F005DE0FFE7C7E739E0FFE70698CC
:10230000C08FA0B3FFE7069800688068C00778B167
:10231000FFE706980068C0680699896B08800699EF
:10232000886B023088630699C88F0138C8871DE022
:10233000FEF7BEFF0299401A0399884204D3FFE7D3
:102340000398013018B9FFE7039870B9FFE70699C1
:10235000012081F85100FFE70699002081F8500024
:10236000FFE703208DF81F0023E0FFE7C7E7FFE743
:1023700006980399029A02F07DF820B1FFE70699CA
:1023800020204865FFE70699012081F85100FFE70A
:102390000699002081F85000FFE70698406D20B1B3
:1023A000FFE701208DF81F0003E000208DF81F00DB
:1023B000FFE79DF81F0008B080BD000080B588B021
:1023C00006900591ADF812200393FEF771FF02907D
:1023D000BDF81200ADF80600069890F851000128EB
:1023E00004D0FFE702208DF81F0034E1059820B1EA
:1023F000FFE7BDF8120020B9FFE701208DF81F00AC
:1024000029E1FFE7069890F85000012804D1FFE782
:1024100002208DF81F001EE10699012081F850006E
:10242000FFE7FFE70699032081F851000699002095
:1024300048650599069A1163BDF81210069A9186AF
:10244000BDF81210069AD186069988630699888786
:102450000699C887069948640699086406988068B2
:10246000B0F5004F0DD1FFE706980168086820F02D
:102470004000086006980168086840F480400860E1
:10248000FFE706980068006800F04000402807D089
:10249000FFE706980168086840F040000860FFE721
:1024A0000698C068B0F5006F51D1FFE70698406804
:1024B00028B1FFE7BDF8060001280ED1FFE7069816
:1024C0000168006B0088C8600699086B02300863D9
:1024D0000699C88E0138C886FFE7FFE70698C08EC8
:1024E000A0B3FFE7069800688068800700280ED533
:1024F000FFE706980168006B0088C8600699086BC2
:10250000023008630699C88E0138C8861DE0FEF7C0
:10251000CFFE0299401A0399884204D3FFE703983B
:10252000013018B9FFE7039870B9FFE70699012059
:1025300081F85100FFE70699002081F85000FFE77D
:1025400003208DF81F0086E0FFE7C7E750E00698FC
:10255000406828B1FFE7BDF8060001280ED1FFE76B
:1025600006980168006B007808730699086B0130C3
:1025700008630699C88E0138C886FFE7FFE706980A
:10258000C08EA0B3FFE70698006880688007002827
:102590000ED5FFE706980168006B0078087306996E
:1025A000086B013008630699C88E0138C8861DE0A3
:1025B000FEF77EFE0299401A0399884204D3FFE792
:1025C0000398013018B9FFE7039870B9FFE706993F
:1025D000012081F85100FFE70699002081F85000A2
:1025E000FFE703208DF81F0035E0FFE7C7E7FFE7AF
:1025F00006980399029A01F099FF20B1FFE7069926
:1026000020204865FFE70698806870B9FFE7FFE77C
:102610000020009006980068C06800900698006846
:10262000806800900098FFE7FFE70699012081F895
:102630005100FFE70699002081F85000FFE7069857
:10264000406D20B1FFE701208DF81F0003E000205E
:102650008DF81F00FFE79DF81F0008B080BD000047
:1026600080B58CB0DDF838C00A9009910892ADF8B9
:102670001E3001200390FEF71BFE04900A9890F88C
:1026800051008DF817000A9840680690BDF81E00AA
:10269000ADF81C009DF81700012812D0FFE706983E
:1026A000B0F5827F09D1FFE70A98806828B9FFE773
:1026B0009DF81700042804D0FFE702208DF82F00B2
:1026C0009BE1099838B1FFE7089820B1FFE7BDF812
:1026D0001E0020B9FFE701208DF82F008DE1FFE7F4
:1026E0000A9890F85000012804D1FFE702208DF8E5
:1026F0002F0082E10A99012081F85000FFE7FFE7EF
:102700000A9890F85100042805D0FFE70A9905209F
:1027100081F85100FFE70A990020486508990A9A54
:102720009163BDF81E100A9AD187BDF81E100A9A4F
:10273000918709990A9A1163BDF81E100A9AD186E9
:10274000BDF81E100A9A91860A9908640A9948648D
:102750000A980068006800F04000402807D0FFE7B2
:102760000A980168086840F040000860FFE70A988E
:10277000C068B0F5006F40F08180FFE70A984068BC
:1027800028B1FFE7BDF81C0001280ED1FFE70A9829
:102790000168006B0088C8600A99086B0230086302
:1027A0000A99C88E0138C886FFE7FFE70A98C18EEC
:1027B0000120019039B9FFE70A98C08F002818BF9F
:1027C00001200190FFE70198C007002855D0FFE7DE
:1027D0000A98006880688007002818D5FFE70A98E3
:1027E000C08EA0B1FFE70398012810D1FFE70A9837
:1027F0000168006B0088C8600A99086B02300863A2
:102800000A99C88E0138C88600200390FFE70A980D
:1028100000688068C007A8B1FFE70A98C08F88B138
:10282000FFE70A980068C0680A99896B08800A99CE
:10283000886B023088630A99C88F0138C8870120E5
:102840000390FFE7FEF734FD0499401A0E99884281
:1028500012D3FFE70E98013070B1FFE70A9901200B
:1028600081F85100FFE70A99002081F85000FFE746
:1028700003208DF82F00C0E098E782E00A984068B6
:1028800028B1FFE7BDF81C0001280ED1FFE70A9828
:102890000168006B007808730A99086B01300863BF
:1028A0000A99C88E0138C886FFE7FFE70A98C18EEB
:1028B0000120009039B9FFE70A98C08F002818BF9F
:1028C00001200090FFE70098C007002858D0FFE7DC
:1028D0000A98006880688007002818D5FFE70A98E2
:1028E000C08EA0B1FFE70398012810D1FFE70A9836
:1028F0000168006B007808730A99086B013008635F
:102900000A99C88E0138C88600200390FFE70A980C
:1029100000688068C007A8B1FFE70A98C08F88B137
:10292000FFE70A980068C0680A99896B08700A99DD
:10293000886B013088630A99C88F0138C8870120E5
:102940000390FFE7FEF7B4FC0499401A0E99884201
:1029500004D3FFE70E98013018B9FFE70E9870B95D
:10296000FFE70A99012081F85100FFE70A9900204A
:1029700081F85000FFE703208DF82F003DE095E738
:10298000FFE70A980E99049A01F0D0FD68B1FFE7BD
:102990000A9920204865FFE70A99002081F8500035
:1029A000FFE701208DF82F0027E00A98806870B9B2
:1029B000FFE7FFE7002002900A980068C0680290D5
:1029C0000A980068806802900298FFE7FFE70A997A
:1029D000012081F85100FFE70A99002081F850009A
:1029E000FFE70A98406D20B1FFE701208DF82F0026
:1029F00003E000208DF82F00FFE79DF82F000CB0BA
:102A000080BD000080B582B001F0CEF8FDF70EFD6C
:102A1000FDF798FD02F0F0FE40F29400C2F20000D3
:102A200002F040FA40F2D420C2F2000002F03AFA7A
:102A300002F0E2FE03F01CFC8DF80700002002F01B
:102A4000B9FD02B080BD000080B582B00190019850
:102A500001F09AFE02B080BD80B5FFF7D3FF80BDC4
:102A600081B0009001B0704781B0009001B0704714
:102A700085B003900291FFE7039890F83C0001288D
:102A800004D1FFE702208DF813005BE003990120D9
:102A900081F83C00FFE7FFE70399022081F83D0041
:102AA000039800684068019003980068806800906F
:102AB000019820F070000190029801680198084385
:102AC000019001980399096848600398006842F6EC
:102AD0000041C4F20101884218D0FFE70398006862
:102AE000B0F1804F12D0FFE70398006840F2004138
:102AF000C4F20001884209D0FFE70398006840F65D
:102B00000001C4F2000188420ED1FFE7009820F0D6
:102B10008000009002984168009808430090009857
:102B2000039909688860FFE70399012081F83D0057
:102B3000FFE70399002081F83C00FFE700208DF8B3
:102B40001300FFE79DF8130005B0704780B582B011
:102B50000090009820B9FFE701208DF807003FE0C2
:102B6000009890F83D0040B9FFE70099002081F8F7
:102B70003C00009800F038F8FFE70099022081F847
:102B80003D00009951F8040B01F080FE00990120EE
:102B900081F84600FFE70099012081F83E00009986
:102BA00081F83F00009981F84000009981F84100C8
:102BB000FFE7FFE70099012081F84200009981F8C2
:102BC0004300009981F84400009981F84500FFE72F
:102BD0000099012081F83D0000208DF80700FFE7F3
:102BE0009DF8070002B080BD80B584B003900398C3
:102BF000006842F60041C4F20101884219D1FFE7A2
:102C0000FFE741F21800C4F20200016841F40061DC
:102C10000160006800F4006002900298FFE719204C
:102C2000009002210022FEF7DFFB0098FEF7D2FBA6
:102C300019E00398006840F20041C4F200018842A4
:102C400010D1FFE7FFE741F21C00C4F20200016867
:102C500041F002010160006800F00200019001985B
:102C6000FFE7FFE7FFE704B080BD000083B00190FD
:102C7000019890F83D00012804D0FFE701208DF86D
:102C80000B0047E00199022081F83D00019801689E
:102C9000C86840F00100C8600198006842F6004131
:102CA000C4F20101884218D0FFE701980068B0F132
:102CB000804F12D0FFE70198006840F20041C4F253
:102CC0000001884209D0FFE70198006840F6000142
:102CD000C4F20001884212D1FFE7019800688068C1
:102CE00000F0070000900098062807D0FFE7019841
:102CF0000168086840F001000860FFE706E00198FD
:102D00000168086840F001000860FFE700208DF8C6
:102D10000B00FFE79DF80B0003B0704780B586B04D
:102D20000490039100208DF80B00FFE7049890F8C1
:102D30003C00012804D1FFE702208DF81700ABE02A
:102D40000499012081F83C00FFE7FFE70499022085
:102D500081F83D000498006880680190019820F097
:102D600077000190019820F47F4001900198049928
:102D700009688860039800680090002872D0FFE717
:102D8000009810286ED0FFE7009820286AD0FFE74F
:102D90000098302866D0FFE70098402855D0FFE71C
:102DA0000098502837D0FFE70098602840D0FFE710
:102DB000009870280BD0FFE70098B0F5805F05D031
:102DC000FFE70098B0F5005F16D052E055E0049898
:102DD0000068039B5A689968DB6801F0F7FD049866
:102DE000006880680190019840F077000190019898
:102DF00004990968886040E004980068039B5A6859
:102E00009968DB6801F0E2FD04980168886840F485
:102E10008040886031E004980068039A5168D26865
:102E200001F090FF04980068502101F0E9FD24E0D2
:102E300004980068039A5168D26801F0ABFF0498C7
:102E40000068602101F0DCFD17E004980068039A37
:102E50005168D26801F076FF04980068402101F0C3
:102E6000CFFD0AE0049800680399096801F0C8FDE5
:102E700003E001208DF80B00FFE70499012081F8A1
:102E80003D00FFE70499002081F83C00FFE79DF832
:102E90000B008DF81700FFE79DF8170006B080BD06
:102EA00080B586B004900391049820B9FFE7012013
:102EB0008DF8170084E0049890F83D0040B9FFE7D2
:102EC0000499002081F83C00049800F07DF8FFE7A9
:102ED0000499022081F83D0004980168886844F252
:102EE000070290438860049951F8040B01F0CEFC6E
:102EF00004980068806802900498006880690190D6
:102F000004980068006A00900398016802980843DA
:102F10000290019840F20331884301900399886838
:102F2000896940EA0121019808430190019840F61F
:102F30000C418843019001984FF2F00188430190C1
:102F40000399C868C96940EA0121019808430190C2
:102F500003990869096A000140EA013101980843B0
:102F60000190009820F02200009003994868496978
:102F700040EA0111009808430090029804990968FA
:102F80008860019804990968886100980499096823
:102F900008620499012081F84600049981F83E00F6
:102FA000049981F83F00049981F84200049981F85E
:102FB0004300049981F83D0000208DF81700FFE7D9
:102FC0009DF8170006B080BD80B58EB00D90002032
:102FD0000C900B900A9009900D980068B0F1804F0A
:102FE00061D1FFE7FFE741F21C00C4F20200016873
:102FF00041F001010160006800F0010008900898AC
:10300000FFE7FFE741F21800C4F20200016841F057
:1030100004010160006800F0040007900798FFE7D2
:10302000FFE741F21800C4F20200016841F0080114
:103030000160006800F0080006900698FFE74FF472
:1030400000400990002000900A90012001900B9010
:1030500040F60000C4F2010009A90291FDF780FFCB
:10306000009A01980299082309930A920B9040F65E
:103070000040C4F20100FDF773FFFFE70421C4F232
:10308000010108680590059820F4407005900598A6
:1030900040F0E0600590059840F480700590059838
:1030A0000860FFE735E00D98006840F60001C4F2C3
:1030B000000188422CD1FFE7FFE741F21C00C4F277
:1030C0000200016841F004010160006800F00400A2
:1030D00004900498FFE7FFE741F21800C4F20200F1
:1030E000016841F008010160006800F008000390E9
:1030F0000398FFE7C020099000200A9001200B9060
:1031000040F60040C4F2010009A9FDF729FFFFE7DE
:10311000FFE70EB080BD000080B586B0049003913B
:10312000049890F83E008DF80B00049890F83F004A
:103130008DF80A00049890F842008DF80900049870
:1031400090F843008DF808000398B8B9FFE79DF8A0
:103150000B00012805D1FFE79DF80900012804D0E4
:10316000FFE701208DF8170079E00499022081F82B
:103170003E00049981F84200FFE742E003980428EA
:1031800017D1FFE79DF80A00012805D1FFE79DF858
:103190000800012804D0FFE701208DF817005EE049
:1031A0000499022081F83F00049981F84300FFE769
:1031B00026E09DF80B0001280FD1FFE79DF80A00DB
:1031C00001280AD1FFE79DF80900012805D1FFE792
:1031D0009DF80800012804D0FFE701208DF81700B2
:1031E0003DE00499022081F83E00049981F83F00F7
:1031F000049981F84200049981F84300FFE7FFE752
:10320000FFE70398019020B1FFE70198042807D059
:103210000DE0049800680021012201F0BBFB14E0DE
:10322000049800680421012201F0B4FB0DE0049829
:10323000006800210122009201F0ACFB009A049882
:103240000068042101F0A6FBFFE704980168086804
:1032500040F00100086000208DF81700FFE79DF89E
:10326000170006B080BD000081B0009001B070472B
:1032700080B584B0039003980068C06802900398FA
:103280000068006901909DF804008007002824D59B
:10329000FFE79DF80800800700281DD5FFE7039889
:1032A00001686FF002000861039901200877039814
:1032B00000688069800720B1FFE70398FFF7D4FF1B
:1032C00006E0039800F02EF9039800F023FAFFE7D8
:1032D000039900200877FFE7FFE79DF80400400707
:1032E000002825D5FFE79DF80800400700281ED5D7
:1032F000FFE7039801686FF004000861039902205A
:10330000087703980068806910F4407F04D0FFE7D5
:103310000398FFF7A9FF06E0039800F003F903986C
:1033200000F0F8F9FFE7039900200877FFE7FFE7CF
:103330009DF804000007002824D5FFE79DF8080049
:10334000000700281DD5FFE7039801686FF008000B
:10335000086103990420087703980068C069800712
:1033600020B1FFE70398FFF77FFF06E0039800F026
:10337000D9F8039800F0CEF9FFE703990020087709
:10338000FFE7FFE79DF80400C006002825D5FFE70A
:103390009DF80800C00600281ED5FFE703980168C5
:1033A0006FF01000086103990820087703980068FF
:1033B000C06910F4407F04D0FFE70398FFF754FF83
:1033C00006E0039800F0AEF8039800F0A3F9FFE7D9
:1033D000039900200877FFE7FFE79DF80400C00786
:1033E00078B1FFE79DF80800C00748B1FFE70398F0
:1033F00001686FF001000861039800F03FFAFFE7F1
:10340000FFE79DF804000006002810D5FFE79DF8AF
:1034100008000006002809D5FFE7039801686FF04F
:10342000800008610398FFF71BFBFFE7FFE79DF8AB
:1034300004004006002810D5FFE79DF8080040066C
:10344000002809D5FFE7039801686FF04000086184
:10345000039800F025FAFFE7FFE79DF804008006D7
:10346000002810D5FFE79DF808008006002809D540
:10347000FFE7039801686FF0200008610398FFF7E9
:10348000F3FAFFE7FFE704B080BD000080B58AB023
:103490000990002008900790069005900998006810
:1034A00040F20041C4F20001884239D1FFE7FFE752
:1034B00041F21800C4F20200016841F00401016009
:1034C000006800F0040004900498FFE7FFE741F271
:1034D0001800C4F20200016841F0080101600068B0
:1034E00000F0080003900398FFE7C0200590022039
:1034F00001900690089040F60000C4F2010005A972
:103500000291FDF72DFD0198029903220592069084
:10351000089040F60040C4F20100FDF721FDFFE7EE
:103520000AB080BD81B0009001B0704780B586B010
:1035300004900391029200208DF80700FFE70498A1
:1035400090F83C00012804D1FFE702208DF8170015
:1035500089E00499012081F83C00FFE7FFE7029829
:1035600000900C2800F270800099DFE801F0076DF0
:103570006D6D206D6D6D3A6D6D6D53000498006832
:10358000039901F053FA04980168886940F0080033
:10359000886104980168886920F0040088610398B4
:1035A00002690498016888691043886150E00498B2
:1035B0000068039901F0A2FA04980168886940F450
:1035C0000060886104980168886920F480608861DF
:1035D0000398026904980168886940EA02208861BA
:1035E00036E004980068039901F0F4FA0498016841
:1035F000C86940F00800C86104980168C86920F0F3
:103600000400C8610398026904980168C8691043FE
:10361000C8611DE004980068039901F047FB049815
:103620000168C86940F40060C86104980168C8690D
:1036300020F48060C8610398026904980168C86931
:1036400040EA0220C86103E001208DF80700FFE78F
:10365000FFE70499002081F83C00FFE79DF8070090
:103660008DF81700FFE79DF8170006B080BD000039
:1036700080B582B00090009820B9FFE701208DF856
:1036800007003FE0009890F83D0040B9FFE700993F
:10369000002081F83C00009800F038F8FFE700991E
:1036A000022081F83D00009951F8040B01F0EEF87A
:1036B0000099012081F84600FFE70099012081F878
:1036C0003E00009981F83F00009981F84000009980
:1036D00081F84100FFE7FFE70099012081F84200EF
:1036E000009981F84300009981F84400009981F81D
:1036F0004500FFE70099012081F83D0000208DF88A
:103700000700FFE79DF8070002B080BD81B0009080
:1037100001B0704781B0009001B0704780B58AB0A9
:1037200008900791079828B9FFE7089890F83E009D
:1037300005901CE00798042805D1FFE7089890F849
:103740003F00049010E00798082805D1FFE708988B
:1037500090F84000039004E0089890F8410003902E
:10376000FFE703980490FFE704980590FFE70598AA
:10377000012804D0FFE701208DF827007AE00798A0
:1037800028B9FFE70899022081F83E001EE007985B
:10379000042806D1FFE70899022081F83F00029033
:1037A00012E00798082806D1FFE70899022081F85F
:1037B0004000019005E00899022081F84100019045
:1037C000FFE701980290FFE70298FFE7089800687A
:1037D0000799012201F0DEF80898006842F60041DE
:1037E000C4F20101884207D1FFE708980168486CDC
:1037F00040F400404864FFE70898006842F6004142
:10380000C4F20101884218D0FFE708980068B0F1BF
:10381000804F12D0FFE70898006840F20041C4F2E0
:103820000001884209D0FFE70898006840F60001CF
:10383000C4F20001884212D1FFE70898006880684E
:1038400000F0070006900698062807D0FFE70898C2
:103850000168086840F001000860FFE706E008988A
:103860000168086840F001000860FFE700208DF85B
:103870002700FFE79DF827000AB080BD80B582B021
:1038800001900198006842F60041C4F201018842AB
:1038900003D1FFE701F0D2FDFFE702B080BD0000D9
:1038A00081B0009001B0704780B582B00090009860
:1038B00020B9FFE701208DF8070040E000988069FB
:1038C00008B1FFE700E0FFE7009890F8410040B939
:1038D000FFE70099002081F84000009800F034F8DC
:1038E000FFE70099242081F8410000980168C8682A
:1038F00020F40050C860009801F076FA0098016842
:10390000086920F49040086100980168486920F037
:103910002A00486100980168C86840F40050C860F7
:10392000009900204864009A202182F84110009AF2
:1039300082F84210009948638DF80700FFE79DF870
:10394000070002B080BD000080B58AB00990002059
:1039500008900790069005900998006844F60001C9
:10396000C4F20001884239D1FFE7FFE741F21C00B1
:10397000C4F20200016841F480210160006800F493
:10398000802004900498FFE7FFE741F21800C4F29A
:103990000200016841F008010160006800F00800C1
:1039A00003900398FFE74FF4806005900220069093
:1039B0000320089040F60040C4F20100019005A9E0
:1039C0000291FDF7CDFA019802994FF40062059239
:1039D000002206920792FDF7C3FAFFE70AB080BD06
:1039E000FFE7FEE780B586B00020059004900390C5
:1039F0000290FFE70298B0F57A7F25DAFFE700F042
:103A00009FF840F2BC00C2F200000168059802F085
:103A1000A1FA059040F2C000C2F2000001680498CB
:103A200002F098FA049040F2C400C2F2000001686B
:103A3000039802F08FFA03900120FDF76FFAFFE779
:103A4000029801300290D5E705980021C4F27A412E
:103A5000019102F017FB019940F2BC22C2F2000270
:103A60001060049802F00EFB019940F2C022C2F2ED
:103A700000021060039802F005FB40F2C421C2F27C
:103A80000001086006B080BD80B582B06B20802147
:103A900000F00CF96420FDF741FA75200DF10701E3
:103AA000012200F019F89DF80700712812D1FFE7F4
:103AB0006B20012100F0FAF819200021009100F09C
:103AC000F5F81A20032100F0F1F800991B2000F00E
:103AD000EDF8FFE702B080BD80B588B08DF81F001B
:103AE00006918DF817209DF81F0040F080008DF89A
:103AF000160040F60040C4F2010004904FF48051DB
:103B000002910022FDF7BCFB40F2F800C2F2000077
:103B100001900DF116010122039264230093FEF738
:103B20004DFC009B019806999DF81720FEF71EFB9F
:103B30000299039A0498FDF7A3FB08B080BD00002A
:103B400080B582B043200DF102010622FFF7C4FFC9
:103B50009DF802109DF8030040EA012000B202F037
:103B6000A3FB40F2BC01C2F2000108609DF8041002
:103B70009DF8050040EA012000B202F095FB40F2FA
:103B8000C001C2F2000108609DF806109DF8070010
:103B900040EA012000B202F087FB40F2C401C2F209
:103BA0000001086002B080BD80B58CB0FFF7C8FF8F
:103BB00040F2BC00C2F20000006840F2BC21C2F238
:103BC0000001096802F0BCFC0021C4F2033101913C
:103BD00002F058FA40F27801C2F200010291086046
:103BE00040F2C000C2F20000006840F2C021C2F200
:103BF0000001096802F0A4FC019902F043FA40F2C6
:103C00007C01C2F200010591086040F2C400C2F2DA
:103C10000000006840F2C421C2F20001096802F00D
:103C20008FFC019902F02EFA0146029840F28002C0
:103C3000C2F2000209921160006840F28801C2F2EB
:103C4000000104910968039141F26F21C3F68321B9
:103C5000089102F0A9FB039902F07CF9049B0899F2
:103C6000024605981A60006840F28C02C2F2000217
:103C700007921268069202F097FB069902F06AF921
:103C8000079B0899024609981A60006840F2900262
:103C9000C2F200020B9212680A9202F085FB0A99A6
:103CA00002F058F90B9908600CB080BD80B584B063
:103CB0008DF80F008DF80E109DF80F0000F07F00BA
:103CC0008DF80C009DF80E008DF80D0040F60040B8
:103CD000C4F2010002904FF4805101910022FDF7DF
:103CE000CFFA40F2F800C2F2000003A902226423D6
:103CF000FEF764FB019902980122FDF7C1FA04B0B6
:103D000080BD000080B58CB0002100910B910A911C
:103D100009910891079106910591049103910291EF
:103D200040F2C800C2F20000019042F20042C4F228
:103D3000010202604FF480728260017301754FF4DA
:103D40006022C261416001210161FCF79FFF18B14F
:103D5000FFE7FCF795FBFFE70220059001200690A6
:103D600004200990052007904FF4E0400B900020BC
:103D70008DF829008DF82800089040F2C800C2F2A2
:103D8000000005A9FCF746FC18B1FFE7FCF778FB3B
:103D9000FFE7032005900220069040F2C800C2F21F
:103DA000000005A9FCF736FC18B1FFE7FCF768FB3B
:103DB000FFE7042005900320069040F2C800C2F2FD
:103DC000000005A9FCF726FC18B1FFE7FCF758FB3B
:103DD000FFE7052005900420069040F2C800C2F2DB
:103DE000000005A9FCF716FC18B1FFE7FCF748FB3B
:103DF000FFE700200290012003900720049040F28A
:103E0000C800C2F2000002A9FCF766FE18B1FFE785
:103E1000FCF736FBFFE70CB080BD000080B590B02A
:103E200000200F900E900D900C90FFE741F21800CB
:103E3000C4F20200016841F020010160006800F056
:103E400020000B900B98FFE7FFE741F21800C4F247
:103E50000200016841F004010160006800F0040004
:103E60000A900A98FFE7FFE741F21800C4F2020047
:103E7000016841F008010160006800F00800099045
:103E80000998FFE740F60040C4F2010002904FF4A9
:103E90009851019100220492FDF7F2F9049A40F63C
:103EA0000000C4F2010006904FF4E0610891FDF7B4
:103EB000E7F9019A029804990C92012203920D925B
:103EC0000E91022105910F910CA90791FDF748F879
:103ED000DDF80CC0049B059A06980799DDF820E0F0
:103EE000CDF830E0CDF834C00E930F92FDF738F8DE
:103EF00010B080BD80B582B040F2F800C2F2000080
:103F0000019043F60001C4F2000101604FF4827198
:103F1000416000218160C160016141614FF4007224
:103F200082610822C2610162416281620A21C1622A
:103F3000FEF752F818B1FFE7FCF7A2FAFFE702B06C
:103F400080BD000080B588B00021009107910691E6
:103F5000059104910391029140F25010C2F20000C9
:103F6000019042F60042C4F2010202603122426036
:103F700081605922C260016141618161FEF7E6FD05
:103F800018B1FFE7FCF77CFAFFE74FF4805004908C
:103F900040F25010C2F2000004A9FEF7BFFE18B1B3
:103FA000FFE7FCF76DFAFFE700200290039040F274
:103FB0005010C2F2000002A9FEF75AFD18B1FFE747
:103FC000FCF75EFAFFE708B080BD000080B58EB058
:103FD00005A801902421FCF70DF901990022029215
:103FE0000492039240F29810C2F200004FF0804316
:103FF0000360426082604FF6FF73C36002618261BA
:1040000003230593069201230793089209920A92CB
:104010000B930C920D92FEF743FF18B1FFE7FCF7EC
:104020002FFAFFE700200390049040F29810C2F2AC
:10403000000003A9FEF71CFD18B1FFE7FCF720FA0A
:10404000FFE70EB080BD000080B58EB0002100916A
:104050000D910C910B910A9109910891079106918C
:104060000591049103910291019140F2E010C2F296
:10407000000040F20042C4F20002026003224260EB
:10408000816040F20772C26001618161FEF75EFDEE
:1040900018B1FFE7FCF7F4F9FFE74FF480500A90FE
:1040A00040F2E010C2F200000AA9FEF737FE18B194
:1040B000FFE7FCF7E5F9FFE740F2E010C2F200008D
:1040C000FFF7D6FA18B1FFE7FCF7DAF9FFE70020AF
:1040D0000890099040F2E010C2F2000008A9FEF733
:1040E000C7FC18B1FFE7FCF7CBF9FFE760200190B0
:1040F000002202920392059240F2E010C2F2000008
:1041000001A9FFF713FA18B1FFE7FCF7B9F9FFE7C8
:1041100040F2E010C2F2000001A90422FFF706FA03
:1041200018B1FFE7FCF7ACF9FFE740F2E010C2F28C
:10413000000001A90822FFF7F9F918B1FFE7FCF721
:104140009FF9FFE740F2E010C2F2000001A90C2243
:10415000FFF7ECF918B1FFE7FCF792F9FFE740F23F
:10416000E010C2F20000FFF791F90EB080BD000030
:1041700080B58EB005A801902421FCF73BF8019989
:10418000002202920492039240F22820C2F2000020
:1041900040F60003C4F200030360426082604FF601
:1041A000FF73C360026182610323059306920123BA
:1041B0000793089209920A920B930C920D92FEF7C4
:1041C0006FFE18B1FFE7FCF75BF9FFE700200390F3
:1041D000049040F22820C2F2000003A9FEF748FC38
:1041E00018B1FFE7FCF74CF9FFE70EB080BD000007
:1041F00080B582B040F27020C2F20000019044F617
:104200000001C4F2000101604FF4E131416000217E
:104210008160C16001610C2242618161C161FFF76F
:1042200043FB18B1FFE7FCF72BF9FFE702B080BDB5
:10423000FFE7FEE780B582B040F2E010C2F2000076
:1042400001900021FFF76AFA01980421FFF766FA4E
:1042500001980821FFF762FA01980C21FFF75EFA36
:1042600002B080BD81B0ADF80200BDF902000128A6
:104270000CDBFFE740F2E011C2F200010A68002007
:104280005063BDF90200096888631DE0BDF90200B2
:10429000B0F1FF3F0DDCFFE7BDF90200414240F203
:1042A000E010C2F2000002685163016800208863D8
:1042B00009E040F2E011C2F200010A6801205063F7
:1042C00009688863FFE7FFE701B0704781B0ADF888
:1042D0000200BDF9020001280CDBFFE740F2E0110B
:1042E000C2F200010A680020D063BDF9020009682B
:1042F00008641DE0BDF90200B0F1FF3F0DDCFFE7EF
:10430000BDF90200414240F2E010C2F20000026832
:10431000D16301680020086409E040F2E011C2F2B4
:1043200000010A680120D06309680864FFE7FFE71D
:1043300001B0704780B582B000200190FFF792FF76
:104340000198FFF7C3FF02B080BD0000FFE7FEE762
:1043500088B0079006910592079800F00700049036
:104360000498C0F10700052803D3FFE7042001905B
:1043700004E00498C0F107000190FFE70198039062
:1043800004980430062803D8FFE70020009003E0DB
:10439000049803380090FFE700980290069803996C
:1043A000012202FA01F101390840029B9840059967
:1043B0009A40013A1140084308B070477047000026
:1043C00082B00190019840F20001C2F20001096838
:1043D000C90844F6D352C1F26202A1FB0221890945
:1043E00048430090FFE700BFFFE70098411E00919F
:1043F0000028F8D1FFE702B07047000080B540F216
:104400007800C2F20000006841F26F21C3F68321F8
:1044100001F0CAFF80BD000040F2C820C2F20000D7
:104420000068704783B001900091EFF3108072B67E
:10443000029001990020C8610099019A5160019988
:1044400088600199087062B603B0704783B001902C
:104450000091EFF3108072B6029001990020C861BC
:104460000099019A5160019988600199087062B6BB
:1044700003B0704780B586B004900391029204980F
:104480004068B0F5827F13D1FFE704988068B0F5EB
:10449000004F06D0FFE704988068B0F5806F07D121
:1044A000FFE704980168086820F040000860FFE713
:1044B00004984068B0F5827F1BD1FFE704988068BC
:1044C000B0F5806F15D1FFE70498039B02996A4607
:1044D00011600121002200F05FF848B1FFE7049964
:1044E000486D40F02000486503208DF8170019E062
:1044F00014E00498039B02996A461160802100220F
:1045000000F04AF848B1FFE70499486D40F02000F8
:10451000486503208DF8170004E0FFE700208DF8C0
:104520001700FFE79DF8170006B080BD80B586B084
:104530000490039102920498039B02996A461160C9
:104540000221012200F028F848B1FFE70499486DE4
:1045500040F02000486503208DF8170017E004980C
:10456000039B02996A4611608021002200F014F832
:1045700048B1FFE70499486D40F0200048650320EA
:104580008DF8170003E000208DF81700FFE79DF875
:10459000170006B080BD000080B58AB0DDF830C0DD
:1045A000089007918DF81B20059305980190FCF762
:1045B0007FFE024601980C99891A08440390FCF783
:1045C00077FE0290039840F20001C2F200010968F0
:1045D000C1F3CB3148430490FFE708980068806836
:1045E00007990840401AB0FA80F040099DF81B1066
:1045F00088425ED0FFE705980130002858D0FFE7D9
:10460000FCF756FE0299401A0399884204D2FFE74C
:104610000398002842D1FFE708980168486820F015
:10462000E000486008984068B0F5827F13D1FFE74A
:1046300008988068B0F5004F06D0FFE708988068BA
:10464000B0F5806F07D1FFE708980168086820F08F
:1046500040000860FFE70898806AB0F5005F0FD15E
:10466000FFE7FFE708980168086820F40050086039
:1046700008980168086840F400500860FFE7FFE709
:104680000899012081F85100FFE70899002081F87E
:104690005000FFE703208DF827000EE0049818B9BA
:1046A000FFE700200390FFE7049801380490FFE73C
:1046B00093E700208DF82700FFE79DF827000AB058
:1046C00080BD00007047000080B588B0DDF828C0CC
:1046D000079006910592049306980021039101F03A
:1046E000BEFC01460120002918BF4FF0FF3007999A
:1046F00008730A98079908610798029001694FF0BA
:104700007E5001F0BFFC029A03991062069801F0F6
:1047100098FC28B9FFE7069880F000400690FFE774
:104720000498059901F094FC18B9FFE705980490E6
:10473000FFE707990020C8610698079988610A98E1
:1047400020F00040079908610798009090F90C004C
:1047500001F0AAFD059921F0004101F025FE009924
:1047600088600798019090F90C0001F09DFD049974
:1047700021F0004101F018FE0199486107990120DC
:10478000087008B080BD000080B582B0009000982D
:104790000138B0F1807F03D3FFE70120019019E0D9
:1047A000009801384EF21401CEF2000108604FF07B
:1047B000FF300F2100F040FC4EF21801CEF2000154
:1047C000002008604EF21002CEF2000207211160B4
:1047D0000190FFE7019802B080BD000080B5FCF7B2
:1047E0006DFDFEF739F980BD80B596B00CA801903B
:1047F0002821FBF7FFFC0198002302930B930A93F7
:104800000993089307930693059304930393012256
:104810000C924FF480310D910E931092022213925C
:1048200014914FF4E0111591FDF798F818B1FFE7D6
:10483000FBF726FEFFE70F200790022108910020DA
:1048400009904FF480620A920B9007A8FCF7D2FE01
:1048500018B1FFE7FBF714FEFFE7022003904FF4C7
:104860004040059003A8FCF7E1FD18B1FFE7FBF716
:1048700007FEFFE716B080BD7047000080B540F22C
:104880005010C2F20000FEF7F3FC80BD83B002902E
:104890000191029800680090029842F60041C4F22B
:1048A0000101884215D0FFE70298B0F1804F10D087
:1048B000FFE7029840F20041C4F20001884208D0AC
:1048C000FFE7029840F60001C4F2000188420AD1D5
:1048D000FFE7009820F07000009001984168009870
:1048E00008430090FFE7029842F60041C4F201013C
:1048F000884215D0FFE70298B0F1804F10D0FFE753
:10490000029840F20041C4F20001884208D0FFE75B
:10491000029840F60001C4F2000188420AD1FFE784
:10492000009820F4407000900198C16800980843F6
:104930000090FFE7009820F0800001994969084342
:104940000090009802990860019880680299C862F6
:104950000198006802998862029842F60041C4F208
:104960000101884205D1FFE70198006902990863B7
:10497000FFE702990120486102980069C00730B141
:10498000FFE70299086920F001000861FFE703B022
:104990007047000084B0039002910192029800F0E9
:1049A0001F01012088400090009A0399086A9043F3
:1049B00008620198029901F01F0100FA01F20399BF
:1049C000086A1043086204B07047000085B0049084
:1049D000039102920193049880680090009820F45B
:1049E0007F40009003980299019A41EA0221014315
:1049F00000980843009000980499886005B07047BB
:104A000083B002900191029880680090009820F095
:104A10007000009001980099084340F00700009052
:104A200000980299886003B07047000085B0049038
:104A300003910498006A01900499086A20F001002B
:104A40000862049840680090049880690290029877
:104A500020F070000290029820F00300029003986A
:104A60000168029808430290019820F0020001902A
:104A700003988168019808430190049842F6004128
:104A8000C4F2010188420ED1FFE7019820F008002E
:104A900001900398C168019808430190019820F0A3
:104AA00004000190FFE7049842F60041C4F20101BE
:104AB000884213D1FFE7009820F48070009000989E
:104AC00020F400700090039841690098084300901A
:104AD00003988169009808430090FFE700980499C3
:104AE0004860029804998861039840680499486373
:104AF00001980499086205B07047000085B00490E1
:104B000003910498006A01900499086A20F010004B
:104B100008620498406800900498806902900298A6
:104B200020F4E0400290029820F440700290039834
:104B30000168029840EA01200290019820F02000CC
:104B4000019003988168019840EA0110019004984F
:104B500042F60041C4F2010188420FD1FFE70198FB
:104B600020F0800001900398C168019840EA01108C
:104B70000190019820F040000190FFE7049842F670
:104B80000041C4F20101884215D1FFE7009820F4EA
:104B900080600090009820F40060009003984169C4
:104BA000009840EA8100009003988169009840EAEB
:104BB00081000090FFE700980499486002980499EA
:104BC0008861039840680499886301980499086291
:104BD00005B0704785B0049003910498006A019075
:104BE0000499086A20F48070086204984068009074
:104BF0000498C0690290029820F070000290029818
:104C000020F0030002900398016802980843029084
:104C1000019820F40070019003988168019840EA9F
:104C200001200190049842F60041C4F2010188423B
:104C30000FD1FFE7019820F4006001900398C1684C
:104C4000019840EA01200190019820F480600190D1
:104C5000FFE7049842F60041C4F20101884215D1F1
:104C6000FFE7009820F480500090009820F4005056
:104C7000009003984169009840EA01100090039861
:104C80008169009840EA01100090FFE700980499BC
:104C9000486002980499C861039840680499C86301
:104CA00001980499086205B07047000085B004902F
:104CB00003910498006A01900499086A20F48050D6
:104CC00008620498406800900498C06902900298B5
:104CD00020F4E0400290029820F440700290039883
:104CE0000168029840EA01200290019820F40050E7
:104CF000019003988168019840EA0130019004987E
:104D000042F60041C4F2010188420BD1FFE700984E
:104D100020F48040009003984169009840EA811097
:104D20000090FFE700980499486002980499C861D0
:104D3000039840680499086401980499086205B0D2
:104D40007047000085B00490039102920498006AB5
:104D500000900499086A20F00100086204988069B4
:104D60000190019820F0F00001900299019840EA2A
:104D700001100190009820F00A000090039900981B
:104D8000084300900198049988610098049908628A
:104D900005B0704785B00490039102920498006AB0
:104DA00000900499086A20F0100008620498806955
:104DB0000190019820F4704001900299019840EA16
:104DC00001300190009820F0A00000900399009815
:104DD00040EA0110009001980499886100980499B4
:104DE000086205B07047000080B584B00390039856
:104DF0000068006920F44050039A1168D26810439B
:104E00000861039988680A69496910430843029058
:104E100003980068C06841F20C6188430299084316
:104E200003990968C86003980068406920F44070DD
:104E3000039A11689269104348610398006843F629
:104E40000001C4F20101884204D1FFE7FCF716FD1E
:104E5000019003E0FCF700FD0190FFE701981921A4
:104E60004843039A116852689200B0FBF2FC48F282
:104E70001F52C5F2EB12ACFB02304309642003FB66
:104E800010CC322000EB0C10A0FB0202F02000EA54
:104E9000521000EB0310C2F343121044886004B0B8
:104EA00080BD000080B58AB009900998007808B9E3
:104EB000FFE79DE00998006941F26F21C3F6832165
:104EC00001F072FA08900999886920F00040C969D8
:104ED00021F0004101F034FB079009980078012887
:104EE0002ED1FFE7079806900998FBF7D1FA014603
:104EF000069801F09FF810BBFFE70999022008709F
:104F000009984069002101F087F898B1FFE70998F6
:104F1000059090F90C0001F0C7F94CF6CD41C3F6AD
:104F2000CC5101F041FA0599896801F03DFA0999DF
:104F3000886003E0099948698860FFE7FFE7FFE7B9
:104F4000099840680999896801F07BF8B0B9FFE7D2
:104F5000089909980490406800F0FCFF04994860A3
:104F6000099840680999896801F072F828B9FFE743
:104F70000998806809994860FFE7FFE70998406849
:104F80000999896801F064F8B0B9FFE708990998B0
:104F90000390406801F0D4FA03994860099840688A
:104FA0000999896801F04DF828B9FFE709988068E8
:104FB00009994860FFE7FFE709984068099902915D
:104FC000C969019141F26F21C3F6832101F0ECF927
:104FD000019900F0BFFF0299C86107984FF078511E
:104FE00001F02FF820B9FFE7099903200870FFE7C7
:104FF0000AB080BDFFE7FEE781B08DF803009DF9A0
:10500000030000280ED4FFE79DF9031001F01F02F2
:10501000012090404A094EF20011CEF2000141F801
:105020002200FFE701B070474EF60C50CEF20000B0
:105030000068C0F30220704782B08DF8070000912D
:105040009DF9070000280AD4FFE7009800019DF9A8
:1050500007104EF20042CEF2000288540BE0009896
:1050600000019DF8071001F00F014EF61452CEF228
:1050700000028854FFE702B07047000083B002903E
:10508000029800F0070000904EF60C51CEF200019D
:105090000868019001984FF6FF02104001900198B6
:1050A000009A40EA02200022C0F2FA521043019016
:1050B0000198086003B0704780B588B0079040F24F
:1050C000D420C2F2000000F0B7F80190FFF796F983
:1050D0000146019801F034FA014640F20430C2F270
:1050E00000000290006800F035FF01460298016060
:1050F0000799006800F02EFF0146029801600168E0
:105100000791006840F20031C2F20001096801F025
:1051100017FA01460298069100680390069847F234
:10512000BC41C3F6133101F03FF9014603980491E5
:105130000021C4F2163101F037F9049900F00AFF9A
:105140000590059808B080BD80B582B08DF8070045
:105150009DF8070001380146009103282CD80099DA
:10516000DFE801F0020C162040F60040C4F2010016
:105170004FF400710022FCF783F81EE040F6004077
:10518000C4F201004FF480710022FCF779F814E0BA
:1051900040F60000C4F201004FF400710022FCF759
:1051A0006FF80AE040F60000C4F201004FF480718D
:1051B0000022FCF765F800E0FFE702B080BD0000C8
:1051C00080B582B08DF807009DF8070001380146D0
:1051D000009103282CD80099DFE801F0020C16207A
:1051E00040F60040C4F201004FF400710122FCF7C8
:1051F00047F81EE040F60040C4F201004FF4807111
:105200000122FCF73DF814E040F60000C4F2010072
:105210004FF400710122FCF733F80AE040F6000079
:10522000C4F201004FF480710122FCF729F800E07C
:10523000FFE702B080BD000080B582B00190019808
:10524000406841F26F21C3F6832101F0ADF8009070
:10525000009802B080BD000081B0009000980078F6
:105260000338B0FA80F0400901B0704780B584B0CF
:10527000FCF732F8FFF7B8FAFEF7D0FDFEF7E4FED0
:10528000FEF760FEFEF7A2FEFEF772FFFEF732FEAB
:10529000FEF738FDFEF7ACFFFEF7CCFFFBF7B2F8E8
:1052A000FEF7F2FB40F60040C4F201004FF48051DB
:1052B0000122FBF7E5FFFEF795FB40F25010C2F22A
:1052C0000000FDF7D3FCFFE70020C4F2343001906A
:1052D0000021C4F22F4102910022039200F01CF839
:1052E00000F034F901980299039A00F015F800F0E3
:1052F0002DF901980299039A00F00EF800F026F9B2
:1053000001980299039A00F007F800F01FF9FFE7EF
:10531000002004B080BD000080B586B005900491E7
:10532000039240F29400C2F2000002900021019129
:10533000FFF778F8019940F2D420C2F20000FFF79D
:1053400085F80298039B049A0599EE4640F2000CFA
:10535000C4F2484CCEF800C0FFF7B6F9FFE740F2C0
:105360009400C2F20000FFF777FF08B9FFE7F6E705
:105370000398002100F050FE18B1FFE7FEF7DAFFB6
:10538000FFE700F045F806B080BD000080B588B0AA
:1053900040F29400C2F20000FFF74EFF0190FFF7C9
:1053A0003BF80146019801F0CBF8014640F2F820A5
:1053B000C2F200000390006800F0CCFD01460398A3
:1053C0000160006840F2FC21C2F20001029109680C
:1053D00001F0B6F8029A014603980791016811603E
:1053E0000068049007984CF2AC51C3F2277100F0AA
:1053F000DBFF0146049805910021C4F2A01100F0E2
:10540000D3FF059900F0A6FD0690069808B080BD70
:1054100040F2F821C2F200010020086040F204319D
:10542000C2F20001086040F2FC21C2F200010860F3
:1054300040F20031C2F200010860704780B584B0CC
:1054400040F20400C2F200000078013801460391E6
:10545000032800F277800399DFE801F0020F313E64
:1054600040F2C800C2F20000FBF790FA40F20401DB
:10547000C2F200010220087065E040F22030C2F262
:10548000000002900078411C40F2C800C2F2000007
:10549000FBF754FA01460298037840F21032C2F248
:1054A000000222F8131000780130C0B2FFF788FE26
:1054B00040F20401C2F200010320087043E040F210
:1054C000C800C2F20000FBF761FA40F20401C2F228
:1054D00000010420087036E040F22030C2F20000E3
:1054E00001900078411C40F2C800C2F20000FBF7B6
:1054F00025FA01460198037840F21832C2F2000200
:1055000022F8131000780130C0B2FFF71DFE019899
:1055100040F20402C2F20002012111700078032857
:1055200007D1FFE740F22031C2F2000100200870ED
:1055300007E040F22031C2F2000108780130087023
:10554000FFE700E0FFE704B080BD000080B584B055
:1055500040F29400C2F200000021C4F2BE31FEF716
:1055600061FF40F2D420C2F20000029000210391BA
:10557000FEF76CFF0298039B6A460021C4F22F419C
:1055800011600021C4F2B4210022C4F2FA32FFF704
:105590009BF8FFE740F2D420C2F20000FFF75CFE68
:1055A00008B9FFE7F6E7FEF7C5FEFFF731FF04B0E5
:1055B00080BD000080B598B01790FFF7E7FE169009
:1055C0001798FFF779FD159040F2B820C2F200005D
:1055D00012900021016040F2D022C2F2000211922A
:1055E00011601699006800F0B5FC129A01461198F6
:1055F00011601699006800F0ADFC119A01461298EE
:1056000011601599006800F09BFF129A01461198ED
:1056100011601599006800F09DFC1199086040F236
:105620009400C2F20000416840F22830C2F200004B
:105630000790016040F2D421C2F20001496840F2B3
:105640002C32C2F2000208921160006800F056FC91
:10565000024608980592069100680021C4F22021B4
:10566000099100F0A1FE00F049FC40F65512CDF67C
:105670008B120A924DF6F443C3F691730B9300F02C
:1056800051FA024605980B46069900F049FB00F0D6
:105690006FF9014607981491006800F02FFC02464C
:1056A00008980C920A4609990D92006800F07CFE59
:1056B00000F024FC0A9A0B9B00F034FA0C9A0D9B24
:1056C00000F088F900F054F91299139014980968C1
:1056D0000E914CF6CD41C4F22C010F9100F064FE06
:1056E0000E9900F037FC0F99119A129B18601398CD
:1056F0001268109200F058FE109900F02BFC119ADD
:10570000014612981160006848F20001CCF2DE41B7
:1057100000F097FC30B9FFE748F20000CCF2DE4021
:1057200004901CE040F2B820C2F20000006848F289
:105730000001C4F2DE4100F08BFC30B9FFE748F213
:105740000000C4F2DE40039006E040F2B820C2F24E
:10575000000000680390FFE703980490FFE70498B7
:1057600040F2B821C2F20001086040F2D020C2F23B
:105770000000006848F20001CCF2DE4100F061FC5C
:1057800030B9FFE748F20000CCF2DE4002901CE0A6
:1057900040F2D020C2F20000006848F20001C4F2DA
:1057A000DE4100F055FC30B9FFE748F20000C4F2DA
:1057B000DE40019006E040F2D020C2F20000006816
:1057C0000190FFE701980290FFE7029940F2D02094
:1057D000C2F200000160006800F04AFDFEF776FDAD
:1057E00040F2B820C2F20000006800F041FDFEF770
:1057F00039FD18B080BD000080B586B040F284004D
:10580000C2F20000029001880020B1F5487F0146F5
:10581000C8BF012140F2B902C2F200020392117026
:1058200040F28601C2F2000101910988B1F5487F7A
:10583000C8BF012040F2BA01C2F20001087040F274
:105840007200C2F20000008840F27001C2F2000152
:105850000988084400F028FD4FF07C5100F0A4FDB9
:105860000021C4F2484100F0E5FB014601980029FF
:1058700018BF012140F2B802C2F200021170008884
:10588000C0F5AF6000F010FD014602980591008858
:10589000C0F5AF6000F008FD014603980491007860
:1058A000C00790B1FFE740F2BA00C2F200000078F2
:1058B000C00750B1FFE70498059900F041FE40F29F
:1058C0003031C2F20001086032E040F2B900C2F2A9
:1058D00000000078C00788B1FFE7049800F00EFBD5
:1058E00002460B461046194600F074F800F040F8E6
:1058F00040F23031C2F20001086018E040F2BA0014
:10590000C2F200000078C00780B1FFE7059800F000
:10591000F5FA00224FF0404300F004F900F028F8B7
:1059200040F23031C2F200010860FFE7FFE7FFE715
:1059300040F27200C2F200000088B0F5487F10DD2E
:10594000FFE740F27000C2F200000088B0F5487F27
:1059500007DDFFE740F23031C2F2000100200860AD
:10596000FFE740F23030C2F20000006806B080BDB0
:1059700021F0004201F00043A2F16052B2F5801F15
:1059800028BFD2F17F6C0BD95FEA001C43EAC20248
:1059900042EB507018BF704728BF20F001007047DD
:1059A000B2F5801FBCBF184670474FEA410C1CF58A
:1059B000001F02D2084600F0BEBD70B500F05CF9D1
:1059C00000000089FFF7F6BF4FF00040A0F580000F
:1059D0007047000010B591EA030F48BF83F0004301
:1059E00000F1A681841A71EB030C05D2121943EB66
:1059F0000C03001B61EB0C014FEA1154A4EB135C88
:105A0000DFF81CE11EEA430F18BF9EEA445F00F076
:105A1000748021EA045123EA0E0343F48013DCF17D
:105A2000200E32D322FA0CFE10EB0E0023FA0CFEED
:105A300041EB0E01CCF1200E03FA0EFE10EB0E002E
:105A4000CCF1200E51F10001B1F5801F32D201EBF3
:105A5000045112FA0EF2BDE8104058BF7047401CC6
:105A600038BF5FEA420218BF7047002814BF20F019
:105A7000010041F100014FEA410313F5001F38BF57
:105A80007047A1F1C04100F045B9012A43EB030280
:105A9000ACF1200CDCF11F0E32BF4FF0000E23FAE8
:105AA0000CF310EB030041EB0451B4EB115FD0D0C9
:105AB000A1EB045101F58011490801EB04515FEAA3
:105AC00030000ED350F1000038BF12FA0EFE08D19C
:105AD000BDE81040C9E7401C38BF5FEA4202CAD1A6
