:020000040800F2
:1000000028080020B5010008B93100088D2A000831
:1000100085310008BD020008593B000800000000BF
:10002000000000000000000000000000B9340008DB
:10003000C102000800000000293200081135000844
:10004000CF010008CF010008CF010008CF01000850
:10005000CF010008CF010008CF010008CF01000840
:10006000CF010008CF010008CF010008CF01000830
:10007000CF010008CF010008CF010008CF01000820
:10008000CF010008CF010008CF010008CF01000810
:10009000CF010008CF010008CF010008CF01000800
:1000A000CF01000889350008CF010008CF01000802
:1000B000CF010008CF010008CF010008CF010008E0
:1000C000CF010008CF010008CF010008CF010008D0
:1000D000CF010008CF010008CF010008CF010008C0
:1000E000CF010008CF010008CF01000800F002F89E
:1000F00000F050F814A696E8000CB244B344DA4578
:1001000001D100F047F8BAE80F000FA696E83000DA
:10011000A5EB040504EB0607AAEB0704A7F101070A
:100120004FEA15154FEA3414A4F10104AC4201D38F
:1001300000F030F813F0010F18BFFB1A43F0010371
:1001400000F001F8DBE718470043000020430000FF
:10015000103A24BF78C878C1FAD8520724BF30C8F3
:1001600030C144BF04680C60704700007047000055
:100170000023002400250026103A28BF78C1FBD8B0
:10018000520728BF30C148BF0B6070471FB51FBD65
:1001900010B510BD00F058F81146FFF7F7FF03F057
:1001A0003DFD00F076F803B4FFF7F2FF03BC00F06A
:1001B0007DF800000948804709480047FEE7FEE750
:1001C000FEE7FEE7FEE7FEE7FEE7FEE7FEE7FEE707
:1001D00004480549054A064B70470000853500086C
:1001E000ED00000828020020280800202804002034
:1001F000280400204FF0000200B5134694469646AE
:10020000203922BFA0E80C50A0E80C50B1F1200129
:10021000BFF4F7AF090728BFA0E80C5048BF0CC0D7
:100220005DF804EB890028BF40F8042B08BF704735
:1002300048BF20F8022B11F0804F18BF00F8012BA7
:100240007047704770477047754600F02BF8AE4610
:1002500005006946534620F00700854618B020B5D2
:10026000FFF7B6FFBDE820404FF000064FF0000753
:100270004FF000084FF0000BAC46ACE8C009ACE80A
:10028000C009ACE8C009ACE8C00921F007018D46FF
:10029000704710B50446AFF300802046BDE810401B
:1002A000FFF781BF00487047100000200149182067
:1002B000ABBEFEE72600020070470000FFE7FEE746
:1002C0007047000080B582B040F23810C2F20000E2
:1002D0003C21019102F010F8019940F2C810C2F2DD
:1002E000000002F009F802B080BD000081B0EFF319
:1002F000108072B60090FFE7FEE7000081B040F288
:100300003810C2F200000068406AADF80200BDF883
:10031000020040F27001C2F200010A88801AADF8B2
:100320000000BDF802000880BDF9000001B0704770
:1003300081B040F2C810C2F200000068406AADF817
:100340000200BDF8020040F27201C2F200010A8808
:10035000801AADF80000BDF802000880BDF9000069
:1003600001B0704780B584B0039000F0C5F90290E9
:10037000039801900198013048B1FFE740F2040072
:10038000C2F200000178019808440190FFE7FFE7FE
:1003900000F0B2F90299401A0199884201D2FFE7B0
:1003A000F6E704B080BD000090B00F900E910020E1
:1003B0000D900990FFE70E9800680D99C84000283D
:1003C00000F07F81FFE70D99012088400C900E9886
:1003D00000680C9908400B900B980C99884240F0EB
:1003E0006C81FFE70E9840680590002851D0FFE728
:1003F000059801283AD0FFE7059802283FD0FFE78B
:10040000059803285FD0FFE70598112832D0FFE751
:100410000598122838D0FFE705980021C1F2110194
:10042000884236D0FFE705980021C1F212018842C8
:100430002FD0FFE705980021C1F22101884228D082
:10044000FFE705980021C1F22201884221D0FFE791
:1004500005980021C1F2310188421AD0FFE70598C2
:100460000021C1F23201884213D02FE00E98C068FB
:1004700009902CE00E98C0680430099027E00E988F
:10048000C0680830099022E00E98C0680C300990CE
:100490001DE00E98806818B9FFE70420099011E06C
:1004A0000E988068012806D1FFE7082009900C9873
:1004B0000F99086105E0082009900C980F99486190
:1004C000FFE7FFE703E00020099000E0FFE70B985B
:1004D000FF2803D8FFE70F98049003E00F9804303B
:1004E0000490FFE7049808900B98FF2804D8FFE7D2
:1004F0000D988000039006E00D996FF01F0000EB4F
:1005000081000390FFE70398079008980068079A16
:100510000F21914088430999914008430899086048
:100520000E98C079C006002840F1C680FFE7FFE7BB
:1005300041F21800C4F20200016841F001010160BB
:10054000006800F0010006900698FFE70D9820F083
:1005500003000821C4F2010140580A900D9800F0F0
:10056000030081000F2000FA01F10A9888430A90E5
:100570000F9840F60001C4F20101884203D1FFE761
:100580000020029026E00F9840F60041C4F20101DD
:10059000884203D1FFE70120019018E00F9841F253
:1005A0000001C4F20101884203D1FFE7022000905C
:1005B0000AE00F9941F20042C4F201020420914284
:1005C00008BF03200090FFE700980190FFE7019823
:1005D0000290FFE702980D9901F00301890000FAEB
:1005E00001F10A9808430A900A980D9921F0030135
:1005F0000822C4F2010288500E988079C0060028B3
:1006000009D5FFE70B9A40F20841C4F201010868DE
:100610001043086008E00B9A40F20841C4F201015F
:10062000086890430860FFE70E98807980060028EC
:1006300009D5FFE70B9A40F20C41C4F201010868AA
:100640001043086008E00B9A40F20C41C4F201012B
:10065000086890430860FFE70E98807980070028BB
:1006600009D5FFE70B9A40F20441C4F20101086882
:100670001043086008E00B9A40F20441C4F2010103
:10068000086890430860FFE70E988079C00748B17A
:10069000FFE70B9A40F20041C4F2010108681043E1
:1006A000086008E00B9A40F20041C4F201010868BA
:1006B00090430860FFE7FFE7FFE70D9801300D90DA
:1006C00079E610B07047000082B00190ADF80210DA
:1006D0008DF801209DF8010028B1FFE7BDF8020068
:1006E0000199086105E0BDF8020000040199086164
:1006F000FFE702B07047000040F22420C2F2000081
:100700000068704740F20400C2F20000027840F234
:100710002421C2F2000108681044086070470000FC
:1007200080B542F20001C4F20201086840F01000F6
:100730000860032000F096F80F2000F005F800F0A4
:100740003BF8002080BD000080B582B0009040F2F0
:100750000000C2F20000006840F20401C2F2000191
:100760000A784FF47A71B1FBF2F1B0FBF1F001F0CD
:100770005FFA20B1FFE701208DF8070018E000982C
:100780000F280DD8FFE700994FF0FF30002200F04E
:100790004FF8009840F20801C2F20001086003E03F
:1007A00001208DF8070003E000208DF80700FFE727
:1007B0009DF8070002B080BD83B0FFE741F218004A
:1007C000C4F20200016841F001010160006800F01C
:1007D000010002900298FFE7FFE741F21C00C4F21B
:1007E0000200016841F080510160006800F0805013
:1007F00001900198FFE7FFE70421C4F201010868B6
:100800000090009820F0E0600090009840F00070A8
:10081000009000980860FFE703B0704780B582B091
:100820008DF807009DF9070003F098F902B080BD2C
:1008300080B586B08DF817000491039200200290D5
:1008400003F0A4F902909DF9170001900298049911
:10085000039A02F0B3FC0146019803F09FF906B039
:1008600080BD000080B582B00190019803F0B8F916
:1008700002B080BD80B584B002900191029820B989
:10088000FFE701208DF80F001BE1019842F2000103
:10089000C4F20201096801F00701884216D9FFE796
:1008A00042F20000C4F20200016821F00701019A3F
:1008B00011430160006800F007000199884204D0EC
:1008C000FFE701208DF80F00FBE0FFE702980078BA
:1008D000800700282AD5FFE7029800784007002803
:1008E00009D5FFE741F20401C4F20201086840F4AF
:1008F000E0600860FFE7029800780007002809D54B
:10090000FFE741F20401C4F20201086840F46050BC
:100910000860FFE741F20401C4F20201086820F018
:10092000F000029A926810430860FFE7029800788E
:10093000C007002860D0FFE70298406801280ED168
:10094000FFE741F20000C4F20200006880030028C3
:1009500004D4FFE701208DF80F00B2E021E00298F7
:10096000406802280ED1FFE741F20000C4F2020005
:1009700000688001002804D4FFE701208DF80F00F3
:100980009FE00DE041F20000C4F202000068800721
:10099000002804D4FFE701208DF80F0091E0FFE765
:1009A000FFE741F20401C4F20201086820F00300ED
:1009B000029A526810430860FFF79EFE0090FFE71E
:1009C00041F20400C4F20200006800F00C00029939
:1009D0004968B0EB810F0ED0FFE7FFF78DFE00995D
:1009E000401A41F28931884204D3FFE703208DF891
:1009F0000F0066E0E4E7FFE7019842F20001C4F26D
:100A00000201096801F00701884216D2FFE742F2AD
:100A10000000C4F20200016821F00701019A1143AD
:100A20000160006800F007000199884204D0FFE7E8
:100A300001208DF80F0044E0FFE70298007840079E
:100A400000280CD5FFE741F20401C4F20201086856
:100A500020F4E060029AD26810430860FFE7029831
:100A60000078000700280DD5FFE741F20401C4F229
:100A70000201086820F46050029A126940EAC2003C
:100A80000860FFE700F022F841F20401C4F202011D
:100A90000968C9B20A0944F22641C0F60001895C1E
:100AA000C84040F20001C2F20001086040F20800B4
:100AB000C2F200000068FFF747FE00208DF80F002B
:100AC000FFE79DF80F0004B080BD000086B0002055
:100AD0000590049003900290019041F20400C4F24A
:100AE000020000680590059800F00C000146009196
:100AF00000283FD0FFE70098042804D0FFE70098C3
:100B0000082806D037E041F20020C0F27A000190B8
:100B100037E00598C0F3834144F23640C0F6000048
:100B2000405C02909DF81600C007C0B1FFE741F29B
:100B30000400C4F202000068C0F3404144F24640A1
:100B4000C0F60000405C0490029841F20021C0F21F
:100B50007A0148430499B0FBF1F0039007E0029852
:100B600040F60011C0F23D0148430390FFE70398AF
:100B7000019006E0FFE741F20020C0F27A00019008
:100B8000FFE7019806B0704780B586B004900498DE
:100B900020B9FFE701208DF817002EE304980078B4
:100BA000C007002800F0AE80FFE741F20400C4F265
:100BB0000200006800F00C00042813D0FFE741F2A7
:100BC0000400C4F20200006800F00C0008281BD1E9
:100BD000FFE741F20400C4F202000068C0030028ED
:100BE00012D5FFE741F20000C4F202000068800362
:100BF000002808D5FFE70498406820B9FFE70120E6
:100C00008DF81700F9E27CE0FFE704984068B0F542
:100C1000803F09D1FFE741F20001C4F202010868F8
:100C200040F48030086032E00498406868B9FFE71B
:100C300041F20001C4F20201086820F4803008602B
:100C4000086820F48020086020E004984068B0F52F
:100C5000A02F0DD1FFE741F20001C4F202010868A4
:100C600040F480200860086840F4803008600CE0A0
:100C700041F20001C4F20201086820F480300860EB
:100C8000086820F480200860FFE7FFE7FFE7FFE740
:100C900004984068D0B1FFE7FFF72EFD0390FFE70F
:100CA00041F20000C4F202000068800300280CD466
:100CB000FFE7FFF721FD0399401A652804D3FFE7FA
:100CC00003208DF8170098E2EAE719E0FFF714FD1A
:100CD0000390FFE741F20000C4F2020000688003C5
:100CE00000280CD5FFE7FFF707FD0399401A652898
:100CF00004D3FFE703208DF817007EE2EAE7FFE761
:100D0000FFE7FFE7049800788007002840F18D8016
:100D1000FFE741F20400C4F20200006810F00C0F7B
:100D200013D0FFE741F20400C4F20200006800F0B3
:100D30000C00082829D1FFE741F20400C4F20200A8
:100D40000068C003002820D4FFE741F20000C4F28D
:100D5000020000688007002809D5FFE704980069B1
:100D6000012804D0FFE701208DF8170045E241F289
:100D70000001C4F20201086820F0F800049A5269E8
:100D800040EAC2000860FFE74EE00498006958B3EB
:100D9000FFE70021C4F2422101200860FFF7ACFC0C
:100DA0000390FFE741F20000C4F2020000688007F0
:100DB00000280CD4FFE7FFF79FFC0399401A032893
:100DC00004D3FFE703208DF8170016E2EAE741F2AB
:100DD0000001C4F20201086820F0F800049A526988
:100DE00040EAC20008601EE00021C4F24221002057
:100DF0000860FFF781FC0390FFE741F20000C4F2B6
:100E000002000068800700280CD5FFE7FFF774FC9C
:100E10000399401A032804D3FFE703208DF8170035
:100E2000EBE1EAE7FFE7FFE7FFE704980078000758
:100E3000002848D5FFE70498806918B3FFE740F21F
:100E40008041C4F2422101200860FFF755FC039065
:100E5000FFE741F22400C4F2020000688007002886
:100E60000CD4FFE7FFF748FC0399401A032804D38A
:100E7000FFE703208DF81700BFE1EAE7012002F049
:100E8000D5F91FE040F28041C4F242210020086001
:100E9000FFF732FC0390FFE741F22400C4F20200A6
:100EA0000068800700280CD5FFE7FFF725FC0399B1
:100EB000401A032804D3FFE703208DF817009CE1B4
:100EC000EAE7FFE7FFE7049800784007002840F1D1
:100ED000D880FFE700208DF8070041F21C00C4F223
:100EE00002000068C000002813D4FFE7FFE741F2CA
:100EF0001C00C4F20200016841F0805101600068EA
:100F000000F0805000900098FFE701208DF8070066
:100F1000FFE747F20000C4F200000068C0050028A7
:100F200022D4FFE747F20001C4F20001086840F450
:100F300080700860FFF7E0FB0390FFE747F20000D6
:100F4000C4F200000068C00500280CD4FFE7FFF7DA
:100F5000D3FB0399401A652804D3FFE703208DF8DB
:100F600017004AE1EAE7FFE7FFE70498C0680128B5
:100F700009D1FFE741F22001C4F20201086840F004
:100F80000100086031E00498C06868B9FFE741F2E9
:100F90002001C4F20201086820F00100086008681E
:100FA00020F0040008601FE00498C06805280DD1F7
:100FB000FFE741F22001C4F20201086840F004009A
:100FC0000860086840F0010008600CE041F2200170
:100FD000C4F20201086820F001000860086820F0EF
:100FE00004000860FFE7FFE7FFE7FFE70498C06839
:100FF000E0B1FFE7FFF780FB0390FFE741F220003D
:10100000C4F202000068800700280ED4FFE7FFF753
:1010100073FB0399401A41F28931884204D3FFE7F8
:1010200003208DF81700E8E0E8E71BE0FFF764FB1A
:101030000390FFE741F22000C4F20200006880073D
:1010400000280ED5FFE7FFF757FB0399401A41F23E
:101050008931884204D3FFE703208DF81700CCE0E4
:10106000E8E7FFE79DF80700012809D1FFE741F213
:101070001C01C4F20201086820F080500860FFE7FC
:10108000FFE70498C069002800F0B380FFE741F251
:101090000400C4F20200006800F00C00082800F010
:1010A0008280FFE70498C06902285CD1FFE76021D5
:1010B000C4F2422100200860FFF71EFB0390FFE707
:1010C00041F20000C4F202000068800100280CD543
:1010D000FFE7FFF711FB0399401A032804D3FFE74A
:1010E00003208DF8170088E0EAE70498006AB0F55D
:1010F000803F0CD1FFE741F20401C4F2020108680D
:1011000020F40030049A926810430860FFE741F22F
:101110000401C4F20201086820F47410049B1A6AE6
:101120005B6A1A43104308606021C4F24221012027
:101130000860FFF7E1FA0390FFE741F20000C4F214
:1011400002000068800100280CD4FFE7FFF7D4FA02
:101150000399401A032804D3FFE703208DF81700F2
:101160004BE0EAE71EE06021C4F242210020086063
:10117000FFF7C2FA0390FFE741F20000C4F2020059
:101180000068800100280CD5FFE7FFF7B5FA039946
:10119000401A032804D3FFE703208DF817002CE042
:1011A000EAE7FFE724E00498C069012804D1FFE7DB
:1011B00001208DF8170020E041F20400C4F2020083
:1011C00000680290029800F480300499096A88420D
:1011D00008D1FFE7029800F470100499496A884228
:1011E00004D0FFE701208DF8170006E0FFE7FFE7D6
:1011F000FFE700208DF81700FFE79DF8170006B005
:1012000080BD000080B584B00290029820B9FFE74D
:1012100001208DF80F006EE00298406A60B9FFE788
:1012200002984068B0F5827F01D1FFE703E00299A0
:101230000020C861FFE705E00299002008610299DB
:101240004861FFE7029900208862029890F85100F7
:1012500040B9FFE70299002081F85000029800F0A1
:101260004FF8FFE70299022081F8510002980168C7
:10127000086820F040000860029A019211685068E6
:10128000D2F808C0D36800F482700CF4044C6044B7
:1012900003F400631844136903F00203184453690C
:1012A00003F001031844936903F400731844D369ED
:1012B00003F038031844136A03F080031843926A5A
:1012C00002F4005210430860029801688269042009
:1012D00000EA1240486002980168C86920F4006082
:1012E000C861029900204865029A012182F85110D4
:1012F0008DF80F00FFE79DF80F0004B080BD0000DF
:1013000080B58AB00990002008900790069005905B
:101310000998006843F60001C4F20001884239D1FF
:10132000FFE7FFE741F21C00C4F20200016841F44C
:1013300080410160006800F4804004900498FFE759
:10134000FFE741F21800C4F20200016841F0080111
:101350000160006800F0080003900398FFE74FF475
:1013600020400590022006900320089040F600409F
:10137000C4F20100019005A90291FFF715F8019848
:1013800002994FF480420592002206920792FFF7DD
:101390000BF8FFE70AB080BD80B588B006900591D4
:1013A000ADF812200393069890F85100012804D05C
:1013B000FFE702208DF81F0011E106984068B0F5A4
:1013C000827F16D1FFE70698806890B9FFE70699FB
:1013D000042081F851000698059ABDF8123003994F
:1013E000EC46CCF80010114600F050FA8DF81F00C2
:1013F000F5E0FFF781F90290059820B1FFE7BDF80D
:10140000120020B9FFE701208DF81F00E7E0FFE799
:10141000069890F85000012804D1FFE702208DF8CB
:101420001F00DCE00699012081F85000FFE7FFE78C
:101430000699042081F85100069900204865059915
:10144000069A9163BDF81210069A9187BDF81210A2
:10145000069AD18706990863069988860699C886F0
:10146000069908640699486406988068B0F5004FAC
:101470000DD1FFE706980168086820F04000086079
:1014800006980168086820F480400860FFE7069825
:101490000068006800F04000402807D0FFE7069889
:1014A0000168086840F040000860FFE70698C068DF
:1014B000D0BBFFE7FFE70698C08FA0B3FFE7069811
:1014C00000688068C00778B1FFE706980068007B75
:1014D0000699896B08700699886B013088630699B4
:1014E000C88F0138C8871DE0FFF706F90299401A36
:1014F0000399884204D3FFE70398013018B9FFE746
:10150000039870B9FFE70699012081F85100FFE7C1
:101510000699002081F85000FFE703208DF81F0096
:101520005DE0FFE7C7E739E0FFE70698C08FA0B3AB
:10153000FFE7069800688068C00778B1FFE7069863
:101540000068C0680699896B08800699886B02302C
:1015500088630699C88F0138C8871DE0FFF7CCF86B
:101560000299401A0399884204D3FFE70398013097
:1015700018B9FFE7039870B9FFE70699012081F8D1
:101580005100FFE70699002081F85000FFE7032093
:101590008DF81F0023E0FFE7C7E7FFE706980399F0
:1015A000029A01F061FE20B1FFE70699202048650C
:1015B000FFE70699012081F85100FFE70699002016
:1015C00081F85000FFE70698406D20B1FFE7012049
:1015D0008DF81F0003E000208DF81F00FFE79DF845
:1015E0001F0008B080BD000080B588B0069005914E
:1015F000ADF812200393FFF77FF80290BDF81200B8
:10160000ADF80600069890F85100012804D0FFE7D5
:1016100002208DF81F0034E1059820B1FFE7BDF8E6
:10162000120020B9FFE701208DF81F0029E1FFE734
:10163000069890F85000012804D1FFE702208DF8A9
:101640001F001EE10699012081F85000FFE7FFE727
:101650000699032081F851000699002048650599F4
:10166000069A1163BDF81210069A9186BDF8121001
:10167000069AD18606998863069988870699C8874D
:10168000069948640699086406988068B0F5004F8A
:101690000DD1FFE706980168086820F04000086057
:1016A00006980168086840F480400860FFE70698E3
:1016B0000068006800F04000402807D0FFE7069867
:1016C0000168086840F040000860FFE70698C068BD
:1016D000B0F5006F51D1FFE70698406828B1FFE7E9
:1016E000BDF8060001280ED1FFE706980168006BDF
:1016F0000088C8600699086B023008630699C88E96
:101700000138C886FFE7FFE70698C08EA0B3FFE761
:10171000069800688068800700280ED5FFE70698C5
:101720000168006B0088C8600699086B0230086386
:101730000699C88E0138C8861DE0FEF7DDFF0299C4
:10174000401A0399884204D3FFE70398013018B97F
:10175000FFE7039870B9FFE70699012081F851006F
:10176000FFE70699002081F85000FFE703208DF87D
:101770001F0086E0FFE7C7E750E00698406828B101
:10178000FFE7BDF8060001280ED1FFE706980168C3
:10179000006B007808730699086B0130086306999E
:1017A000C88E0138C886FFE7FFE70698C08EA0B351
:1017B000FFE7069800688068800700280ED5FFE7DD
:1017C00006980168006B007808730699086B013071
:1017D00008630699C88E0138C8861DE0FEF78CFFA5
:1017E0000299401A0399884204D3FFE70398013015
:1017F00018B9FFE7039870B9FFE70699012081F84F
:101800005100FFE70699002081F85000FFE7032010
:101810008DF81F0035E0FFE7C7E7FFE7069803995B
:10182000029A01F07DFD20B1FFE70699202048656E
:10183000FFE70698806870B9FFE7FFE70020009097
:1018400006980068C068009006980068806800905C
:101850000098FFE7FFE70699012081F85100FFE7B4
:101860000699002081F85000FFE70698406D20B1EE
:10187000FFE701208DF81F0003E000208DF81F0016
:10188000FFE79DF81F0008B080BD000080B58CB058
:10189000DDF838C00A9009910892ADF81E30012099
:1018A0000390FEF729FF04900A9890F851008DF8F4
:1018B00017000A9840680690BDF81E00ADF81C009D
:1018C0009DF81700012812D0FFE70698B0F5827F37
:1018D00009D1FFE70A98806828B9FFE79DF817004B
:1018E000042804D0FFE702208DF82F009BE109981F
:1018F00038B1FFE7089820B1FFE7BDF81E0020B916
:10190000FFE701208DF82F008DE1FFE70A9890F89E
:101910005000012804D1FFE702208DF82F0082E15A
:101920000A99012081F85000FFE7FFE70A9890F834
:101930005100042805D0FFE70A99052081F85100DD
:10194000FFE70A990020486508990A9A9163BDF853
:101950001E100A9AD187BDF81E100A9A918709991C
:101960000A9A1163BDF81E100A9AD186BDF81E109E
:101970000A9A91860A9908640A9948640A98006844
:10198000006800F04000402807D0FFE70A9801688F
:10199000086840F040000860FFE70A98C068B0F5AA
:1019A000006F40F08180FFE70A98406828B1FFE7A8
:1019B000BDF81C0001280ED1FFE70A980168006BF2
:1019C0000088C8600A99086B023008630A99C88EBB
:1019D0000138C886FFE7FFE70A98C18E0120019011
:1019E00039B9FFE70A98C08F002818BF012001907D
:1019F000FFE70198C007002855D0FFE70A98006864
:101A000080688007002818D5FFE70A98C08EA0B12B
:101A1000FFE70398012810D1FFE70A980168006BDF
:101A20000088C8600A99086B023008630A99C88E5A
:101A30000138C88600200390FFE70A980068806894
:101A4000C007A8B1FFE70A98C08F88B1FFE70A98DE
:101A50000068C0680A99896B08800A99886B02300F
:101A600088630A99C88F0138C88701200390FFE76F
:101A7000FEF742FE0499401A0E99884212D3FFE7FE
:101A80000E98013070B1FFE70A99012081F85100EA
:101A9000FFE70A99002081F85000FFE703208DF846
:101AA0002F00C0E098E782E00A98406828B1FFE77D
:101AB000BDF81C0001280ED1FFE70A980168006BF1
:101AC000007808730A99086B013008630A99C88E78
:101AD0000138C886FFE7FFE70A98C18E0120009011
:101AE00039B9FFE70A98C08F002818BF012000907D
:101AF000FFE70098C007002858D0FFE70A98006861
:101B000080688007002818D5FFE70A98C08EA0B12A
:101B1000FFE70398012810D1FFE70A980168006BDE
:101B2000007808730A99086B013008630A99C88E17
:101B30000138C88600200390FFE70A980068806893
:101B4000C007A8B1FFE70A98C08F88B1FFE70A98DD
:101B50000068C0680A99896B08700A99886B01301F
:101B600088630A99C88F0138C88701200390FFE76E
:101B7000FEF7C2FD0499401A0E99884204D3FFE78C
:101B80000E98013018B9FFE70E9870B9FFE70A996F
:101B9000012081F85100FFE70A99002081F85000E8
:101BA000FFE703208DF82F003DE095E7FFE70A9857
:101BB0000E99049A01F0B4FB68B1FFE70A9920205E
:101BC0004865FFE70A99002081F85000FFE70120EF
:101BD0008DF82F0027E00A98806870B9FFE7FFE7CB
:101BE000002002900A980068C06802900A98006875
:101BF000806802900298FFE7FFE70A99012081F8C8
:101C00005100FFE70A99002081F85000FFE70A9889
:101C1000406D20B1FFE701208DF82F0003E0002088
:101C20008DF82F00FFE79DF82F000CB080BD00005D
:101C300080B582B00190019801F040FC02B080BDF7
:101C400081B0009001B0704781B0009001B0704742
:101C500085B003900291FFE7039890F83C000128BB
:101C600004D1FFE702208DF813005BE00399012007
:101C700081F83C00FFE7FFE70399022081F83D006F
:101C8000039800684068019003980068806800909D
:101C9000019820F0700001900298016801980843B3
:101CA000019001980399096848600398006842F61A
:101CB0000041C4F20101884218D0FFE70398006890
:101CC000B0F1804F12D0FFE70398006840F2004166
:101CD000C4F20001884209D0FFE70398006840F68B
:101CE0000001C4F2000188420ED1FFE7009820F005
:101CF0008000009002984168009808430090009886
:101D0000039909688860FFE70399012081F83D0085
:101D1000FFE70399002081F83C00FFE700208DF8E1
:101D20001300FFE79DF8130005B0704780B582B03F
:101D30000090009820B9FFE701208DF807003FE0F0
:101D4000009890F83D0040B9FFE70099002081F825
:101D50003C00009800F038F8FFE70099022081F875
:101D60003D00009951F8040B01F016FC0099012088
:101D700081F84600FFE70099012081F83E000099B4
:101D800081F83F00009981F84000009981F84100F6
:101D9000FFE7FFE70099012081F84200009981F8F0
:101DA0004300009981F84400009981F84500FFE75D
:101DB0000099012081F83D0000208DF80700FFE721
:101DC0009DF8070002B080BD80B584B003900398F1
:101DD000006842F60041C4F20101884219D1FFE7D0
:101DE000FFE741F21800C4F20200016841F400610B
:101DF0000160006800F4006002900298FFE719207B
:101E0000009002210022FEF713FD0098FEF706FD68
:101E100019E00398006840F20041C4F200018842D2
:101E200010D1FFE7FFE741F21C00C4F20200016895
:101E300041F002010160006800F002000190019889
:101E4000FFE7FFE7FFE704B080BD000083B001902B
:101E5000019890F83D00012804D0FFE701208DF89B
:101E60000B0047E00199022081F83D0001980168CC
:101E7000C86840F00100C8600198006842F600415F
:101E8000C4F20101884218D0FFE701980068B0F160
:101E9000804F12D0FFE70198006840F20041C4F281
:101EA0000001884209D0FFE70198006840F6000170
:101EB000C4F20001884212D1FFE7019800688068EF
:101EC00000F0070000900098062807D0FFE701986F
:101ED0000168086840F001000860FFE706E001982B
:101EE0000168086840F001000860FFE700208DF8F5
:101EF0000B00FFE79DF80B0003B0704780B586B07C
:101F00000490039100208DF80B00FFE7049890F8EF
:101F10003C00012804D1FFE702208DF81700ABE058
:101F20000499012081F83C00FFE7FFE704990220B3
:101F300081F83D000498006880680190019820F0C5
:101F400077000190019820F47F4001900198049956
:101F500009688860039800680090002872D0FFE745
:101F6000009810286ED0FFE7009820286AD0FFE77D
:101F70000098302866D0FFE70098402855D0FFE74A
:101F80000098502837D0FFE70098602840D0FFE73E
:101F9000009870280BD0FFE70098B0F5805F05D05F
:101FA000FFE70098B0F5005F16D052E055E00498C6
:101FB0000068039B5A689968DB6801F08DFB049800
:101FC000006880680190019840F0770001900198C6
:101FD00004990968886040E004980068039B5A6887
:101FE0009968DB6801F078FB04980168886840F420
:101FF0008040886031E004980068039A5168D26894
:1020000001F026FD04980068502101F07FFB24E0D8
:1020100004980068039A5168D26801F041FD049861
:102020000068602101F072FB17E004980068039AD1
:102030005168D26801F00CFD04980068402101F05D
:1020400065FB0AE0049800680399096801F05EFBEB
:1020500003E001208DF80B00FFE70499012081F8CF
:102060003D00FFE70499002081F83C00FFE79DF860
:102070000B008DF81700FFE79DF8170006B080BD34
:1020800080B586B004900391049820B9FFE7012041
:102090008DF8170084E0049890F83D0040B9FFE700
:1020A0000499002081F83C00049800F07DF8FFE7D7
:1020B0000499022081F83D0004980168886844F280
:1020C000070290438860049951F8040B01F064FA08
:1020D0000498006880680290049800688069019004
:1020E00004980068006A0090039801680298084309
:1020F0000290019840F20331884301900399886867
:10210000896940EA0121019808430190019840F64D
:102110000C418843019001984FF2F00188430190EF
:102120000399C868C96940EA0121019808430190F0
:1021300003990869096A000140EA013101980843DE
:102140000190009820F022000090039948684969A6
:1021500040EA011100980843009002980499096828
:102160008860019804990968886100980499096851
:1021700008620499012081F84600049981F83E0024
:10218000049981F83F00049981F84200049981F88C
:102190004300049981F83D0000208DF81700FFE707
:1021A0009DF8170006B080BD80B58EB00D90002060
:1021B0000C900B900A9009900D980068B0F1804F38
:1021C00061D1FFE7FFE741F21C00C4F202000168A1
:1021D00041F001010160006800F0010008900898DA
:1021E000FFE7FFE741F21800C4F20200016841F086
:1021F00004010160006800F0040007900798FFE701
:10220000FFE741F21800C4F20200016841F0080142
:102210000160006800F0080006900698FFE74FF4A0
:1022200000400990002000900A90012001900B903E
:1022300040F60000C4F2010009A90291FEF7B4F8CB
:10224000009A01980299082309930A920B9040F68C
:102250000040C4F20100FEF7A7F8FFE70421C4F232
:10226000010108680590059820F4407005900598D4
:1022700040F0E0600590059840F480700590059866
:102280000860FFE735E00D98006840F60001C4F2F1
:10229000000188422CD1FFE7FFE741F21C00C4F2A5
:1022A0000200016841F004010160006800F00400D0
:1022B00004900498FFE7FFE741F21800C4F202001F
:1022C000016841F008010160006800F00800039017
:1022D0000398FFE7C020099000200A9001200B908E
:1022E00040F60040C4F2010009A9FEF75DF8FFE7DF
:1022F000FFE70EB080BD000080B586B0049003916A
:10230000049890F83E008DF80B00049890F83F0078
:102310008DF80A00049890F842008DF8090004989E
:1023200090F843008DF808000398B8B9FFE79DF8CE
:102330000B00012805D1FFE79DF80900012804D012
:10234000FFE701208DF8170079E00499022081F859
:102350003E00049981F84200FFE742E00398042818
:1023600017D1FFE79DF80A00012805D1FFE79DF886
:102370000800012804D0FFE701208DF817005EE077
:102380000499022081F83F00049981F84300FFE797
:1023900026E09DF80B0001280FD1FFE79DF80A0009
:1023A00001280AD1FFE79DF80900012805D1FFE7C0
:1023B0009DF80800012804D0FFE701208DF81700E0
:1023C0003DE00499022081F83E00049981F83F0025
:1023D000049981F84200049981F84300FFE7FFE780
:1023E000FFE70398019020B1FFE70198042807D088
:1023F0000DE0049800680021012201F051F914E079
:10240000049800680421012201F04AF90DE00498C3
:10241000006800210122009201F042F9009A04981C
:102420000068042101F03CF9FFE70498016808689E
:1024300040F00100086000208DF81700FFE79DF8CC
:10244000170006B080BD000081B0009001B0704759
:1024500080B584B0039003980068C0680290039828
:102460000068006901909DF804008007002824D5C9
:10247000FFE79DF80800800700281DD5FFE70398B7
:1024800001686FF002000861039901200877039842
:1024900000688069800720B1FFE70398FFF7D4FF49
:1024A00006E0039800F02EF9039800F023FAFFE706
:1024B000039900200877FFE7FFE79DF80400400735
:1024C000002825D5FFE79DF80800400700281ED505
:1024D000FFE7039801686FF0040008610399022088
:1024E000087703980068806910F4407F04D0FFE704
:1024F0000398FFF7A9FF06E0039800F003F903989B
:1025000000F0F8F9FFE7039900200877FFE7FFE7FD
:102510009DF804000007002824D5FFE79DF8080077
:10252000000700281DD5FFE7039801686FF0080039
:10253000086103990420087703980068C069800740
:1025400020B1FFE70398FFF77FFF06E0039800F054
:10255000D9F8039800F0CEF9FFE703990020087737
:10256000FFE7FFE79DF80400C006002825D5FFE738
:102570009DF80800C00600281ED5FFE703980168F3
:102580006FF010000861039908200877039800682D
:10259000C06910F4407F04D0FFE70398FFF754FFB1
:1025A00006E0039800F0AEF8039800F0A3F9FFE707
:1025B000039900200877FFE7FFE79DF80400C007B4
:1025C00078B1FFE79DF80800C00748B1FFE703981E
:1025D00001686FF001000861039800F03FFAFFE71F
:1025E000FFE79DF804000006002810D5FFE79DF8DE
:1025F00008000006002809D5FFE7039801686FF07E
:10260000800008610398FFF71BFBFFE7FFE79DF8D9
:1026100004004006002810D5FFE79DF8080040069A
:10262000002809D5FFE7039801686FF040000861B2
:10263000039800F027FAFFE7FFE79DF80400800603
:10264000002810D5FFE79DF808008006002809D56E
:10265000FFE7039801686FF0200008610398FFF717
:10266000F3FAFFE7FFE704B080BD000080B58AB051
:10267000099000200890079006900590099800683E
:1026800040F20041C4F20001884239D1FFE7FFE780
:1026900041F21800C4F20200016841F00401016037
:1026A000006800F0040004900498FFE7FFE741F29F
:1026B0001800C4F20200016841F0080101600068DE
:1026C00000F0080003900398FFE7C0200590022067
:1026D00001900690089040F60000C4F2010005A9A0
:1026E0000291FDF761FE019802990322059206907E
:1026F000089040F60040C4F20100FDF755FEFFE7E8
:102700000AB080BD81B0009001B0704780B586B03E
:1027100004900391029200208DF80700FFE70498CF
:1027200090F83C00012804D1FFE702208DF8170043
:1027300089E00499012081F83C00FFE7FFE7029857
:1027400000900C2800F270800099DFE801F0076D1E
:102750006D6D206D6D6D3A6D6D6D53000498006860
:10276000039900F0E9FF04980168886940F00800C7
:10277000886104980168886920F0040088610398E2
:1027800002690498016888691043886150E00498E0
:102790000068039901F038F804980168886940F4EA
:1027A0000060886104980168886920F4806088610D
:1027B0000398026904980168886940EA02208861E8
:1027C00036E004980068039901F08AF804980168DB
:1027D000C86940F00800C86104980168C86920F021
:1027E0000400C8610398026904980168C86910432D
:1027F000C8611DE004980068039901F0DDF80498B1
:102800000168C86940F40060C86104980168C8693B
:1028100020F48060C8610398026904980168C8695F
:1028200040EA0220C86103E001208DF80700FFE7BD
:10283000FFE70499002081F83C00FFE79DF80700BE
:102840008DF81700FFE79DF8170006B080BD000067
:1028500080B582B00090009820B9FFE701208DF884
:1028600007003FE0009890F83D0040B9FFE700996D
:10287000002081F83C00009800F038F8FFE700994C
:10288000022081F83D00009951F8040B00F084FE0D
:102890000099012081F84600FFE70099012081F8A6
:1028A0003E00009981F83F00009981F840000099AE
:1028B00081F84100FFE7FFE70099012081F842001D
:1028C000009981F84300009981F84400009981F84B
:1028D0004500FFE70099012081F83D0000208DF8B8
:1028E0000700FFE79DF8070002B080BD81B00090AF
:1028F00001B0704781B0009001B0704780B58AB0D8
:1029000008900791079828B9FFE7089890F83E00CB
:1029100005901CE00798042805D1FFE7089890F877
:102920003F00049010E00798082805D1FFE70898B9
:1029300090F84000039004E0089890F8410003905C
:10294000FFE703980490FFE704980590FFE70598D8
:10295000012804D0FFE701208DF827007AE00798CE
:1029600028B9FFE70899022081F83E001EE0079889
:10297000042806D1FFE70899022081F83F00029061
:1029800012E00798082806D1FFE70899022081F88D
:102990004000019005E00899022081F84100019073
:1029A000FFE701980290FFE70298FFE708980068A8
:1029B0000799012200F074FE0898006842F6004171
:1029C000C4F20101884207D1FFE708980168486C0A
:1029D00040F400404864FFE70898006842F6004170
:1029E000C4F20101884218D0FFE708980068B0F1EE
:1029F000804F12D0FFE70898006840F20041C4F20F
:102A00000001884209D0FFE70898006840F60001FD
:102A1000C4F20001884212D1FFE70898006880687C
:102A200000F0070006900698062807D0FFE70898F0
:102A30000168086840F001000860FFE706E00898B8
:102A40000168086840F001000860FFE700208DF889
:102A50002700FFE79DF827000AB080BD80B582B04F
:102A600001900198006842F60041C4F201018842D9
:102A700005D1FFE700F0EEF801F03CF8FFE702B007
:102A800080BD000081B0009001B07047FFE7FEE715
:102A900080B586B000200590049003900290FFE777
:102AA0000298B0F57A7F25DAFFE700F09FF840F250
:102AB0008C00C2F200000168059801F037FA059019
:102AC00040F29000C2F200000168049801F02EFA72
:102AD000049040F29400C2F200000168039801F0F3
:102AE00025FA03900120FDF73DFCFFE70298013035
:102AF0000290D5E705980021C4F27A41019101F0D6
:102B000077FA019940F21022C2F200021060049894
:102B100001F06EFA019940F21422C2F20002106034
:102B2000039801F065FA40F21821C2F20001086032
:102B300006B080BD80B582B06B20802100F00CF91A
:102B40006420FDF70FFC75200DF10701012200F054
:102B500019F89DF80700712811D1FFE76B200121BA
:102B600000F0FAF81920002100F0F6F81A200321ED
:102B700000F0F2F81B20102100F0EEF8FFE702B0A1
:102B800080BD000080B588B08DF81F0006918DF8DB
:102B900017209DF81F0040F080008DF8160040F6C9
:102BA0000040C4F2010004904FF4805102910022D1
:102BB000FDF78AFD40F29800C2F2000001900DF18D
:102BC00016010122039264230093FEF70DFD009B82
:102BD000019806999DF81720FEF7DEFB0299039AEB
:102BE0000498FDF771FD08B080BD000080B582B08B
:102BF00043200DF102010622FFF7C4FF9DF80210E9
:102C00009DF8030040EA012000B201F0B3FA40F25F
:102C10008C01C2F2000108609DF804109DF80500C7
:102C200040EA012000B201F0A5FA40F29001C2F2A0
:102C3000000108609DF806109DF8070040EA012099
:102C400000B201F097FA40F29401C2F2000108606C
:102C500002B080BD80B58CB0FFF7C8FF40F28C0099
:102C6000C2F20000006840F21021C2F200010968BF
:102C700001F064FB0021C4F20331019101F0B8F9C5
:102C800040F27401C2F200010291086040F290002B
:102C9000C2F20000006840F21421C2F2000109688B
:102CA00001F04CFB019901F0A3F940F27801C2F266
:102CB00000010591086040F29400C2F20000006833
:102CC00040F21821C2F20001096801F037FB0199B6
:102CD00001F08EF90146029840F27C02C2F2000235
:102CE00009921160006840F28001C2F20001049173
:102CF0000968039141F26F21C3F68321089101F025
:102D000051FA039901F012F9049B089902460598BB
:102D10001A60006840F28402C2F200020792126850
:102D2000069201F03FFA069901F000F9079B089915
:102D3000024609981A60006840F28802C2F2000256
:102D40000B9212680A9201F02DFA0A9901F0EEF83E
:102D50000B9908600CB080BD80B584B08DF80F0071
:102D60008DF80E109DF80F0000F07F008DF80C001C
:102D70009DF80E008DF80D0040F60040C4F20100F1
:102D800002904FF4805101910022FDF79DFC40F22A
:102D90009800C2F2000003A902226423FEF724FC7B
:102DA000019902980122FDF78FFC04B080BD00005C
:102DB00080B590B000200F900E900D900C90FFE722
:102DC00041F21800C4F20200016841F020010160E4
:102DD000006800F020000B900B98FFE7FFE741F23E
:102DE0001800C4F20200016841F0040101600068AB
:102DF00000F004000A900A98FFE7FFE741F218008C
:102E0000C4F20200016841F008010160006800F0AE
:102E1000080009900998FFE740F60040C4F201005D
:102E200002904FF48051019100220492FDF74CFC76
:102E3000049A40F60000C4F2010006904FF480614D
:102E40000891FDF741FC019A029804990C92012225
:102E500003920D920E91022105910F910CA90791F9
:102E6000FDF7A2FADDF80CC0049B059A06980799B5
:102E7000DDF820E0CDF830E0CDF834C00E930F92AD
:102E8000FDF792FA10B080BD80B582B040F2980094
:102E9000C2F20000019043F60001C4F2000101609B
:102EA0004FF48271416000218160C1600161416124
:102EB0004FF4007282610822C26101624162816244
:102EC0000A21C162FEF79EF918B1FFE7FDF70EFA7D
:102ED000FFE702B080BD000080B588B000210091FE
:102EE00007910691059104910391029140F2F0003F
:102EF000C2F20000019042F60042C4F201020260F8
:102F000047224260816040F2E732C2600161416164
:102F10008161FEF70BFF18B1FFE7FDF7E7F9FFE767
:102F20004FF48050049040F2F000C2F2000004A977
:102F3000FEF7E4FF18B1FFE7FDF7D8F9FFE700203F
:102F40000290039040F2F000C2F2000002A9FEF7E6
:102F50007FFE18B1FFE7FDF7C9F9FFE708B080BDB4
:102F600080B58EB005A801902421FDF743F90199A1
:102F7000002202920492039240F23810C2F2000042
:102F80004FF080430360426082604FF6FF73C3607E
:102F9000026182610323059306920123079308923D
:102FA00009920A920B930C920D92FFF769F818B1EF
:102FB000FFE7FDF79BF9FFE700200390049040F244
:102FC0003810C2F2000003A9FEF742FE18B1FFE775
:102FD000FDF78CF9FFE70EB080BD000080B58EB024
:102FE000002100910D910C910B910A91099108918A
:102FF000079106910591049103910291019140F28C
:103000008010C2F2000040F20042C4F200020260EE
:1030100003224260816040F20772C26001618161F7
:10302000FEF784FE18B1FFE7FDF760F9FFE74FF404
:1030300080500A9040F28010C2F200000AA9FEF708
:103040005DFF18B1FFE7FDF751F9FFE740F280108F
:10305000C2F20000FFF7FCFB18B1FFE7FDF746F9ED
:10306000FFE700200890099040F28010C2F20000B3
:1030700008A9FEF7EDFD18B1FFE7FDF737F9FFE707
:1030800060200190002202920392059240F280108B
:10309000C2F2000001A9FFF739FB18B1FFE7FDF705
:1030A00025F9FFE740F28010C2F2000001A90422D6
:1030B000FFF72CFB18B1FFE7FDF718F9FFE740F227
:1030C0008010C2F2000001A90822FFF71FFB18B10F
:1030D000FFE7FDF70BF9FFE740F28010C2F20000B6
:1030E00001A90C22FFF712FB18B1FFE7FDF7FEF86C
:1030F000FFE740F28010C2F20000FFF7B7FA0EB00F
:1031000080BD000080B58EB005A801902421FDF798
:1031100071F80199002202920492039240F2C810C1
:10312000C2F2000040F60003C4F2000303604260F4
:1031300082604FF6FF73C3600261826103230593CF
:10314000069201230793089209920A920B930C921C
:103150000D92FEF795FF18B1FFE7FDF7C7F8FFE7FF
:1031600000200390049040F2C810C2F2000003A9AE
:10317000FEF76EFD18B1FFE7FDF7B8F8FFE70EB0F8
:1031800080BD0000FFE7FEE780B582B040F280100E
:10319000C2F2000001900021FFF7B0FB019804216A
:1031A000FFF7ACFB01980821FFF7A8FB01980C2161
:1031B000FFF7A4FB02B080BDFFE7FEE788B00790F1
:1031C00006910592079800F0070004900498C0F15A
:1031D0000700052803D3FFE70420019004E00498CA
:1031E000C0F107000190FFE70198039004980430B4
:1031F000062803D8FFE70020009003E00498033876
:103200000090FFE70098029006980399012202FAC5
:1032100001F101390840029B984005999A40013A12
:103220001140084308B070477047000082B0019019
:10323000019840F20001C2F200010968C90844F691
:10324000D352C1F26202A1FB0221890948430090D6
:10325000FFE700BFFFE70098411E00910028F8D16A
:10326000FFE702B07047000080B586B0049003917C
:10327000029204984068B0F5827F13D1FFE704986A
:103280008068B0F5004F06D0FFE704988068B0F57D
:10329000806F07D1FFE704980168086820F04000BC
:1032A0000860FFE704984068B0F5827F1BD1FFE714
:1032B00004988068B0F5806F15D1FFE70498039BF0
:1032C00002996A4611600121002200F05FF848B1BE
:1032D000FFE70499486D40F02000486503208DF811
:1032E000170019E014E00498039B02996A461160E4
:1032F0008021002200F04AF848B1FFE70499486DA8
:1033000040F02000486503208DF8170004E0FFE737
:1033100000208DF81700FFE79DF8170006B080BD6C
:1033200080B586B00490039102920498039B0299A1
:103330006A4611600221012200F028F848B1FFE737
:103340000499486D40F02000486503208DF817006F
:1033500017E00498039B02996A46116080210022BD
:1033600000F014F848B1FFE70499486D40F02000E0
:10337000486503208DF8170003E000208DF8170042
:10338000FFE79DF8170006B080BD000080B58AB049
:10339000DDF830C0089007918DF81B200593059843
:1033A0000190FDF7A9F9024601980C99891A084481
:1033B0000390FDF7A1F90290039840F20001C2F2D8
:1033C00000010968C1F3CB3148430490FFE7089836
:1033D0000068806807990840401AB0FA80F04009F8
:1033E0009DF81B1088425ED0FFE705980130002849
:1033F00058D0FFE7FDF780F90299401A03998842F7
:1034000004D2FFE70398002842D1FFE7089801683B
:10341000486820F0E000486008984068B0F5827F76
:1034200013D1FFE708988068B0F5004F06D0FFE79A
:1034300008988068B0F5806F07D1FFE708980168A9
:10344000086820F040000860FFE70898806AB0F53F
:10345000005F0FD1FFE7FFE708980168086820F4D4
:103460000050086008980168086840F4005008603F
:10347000FFE7FFE70899012081F85100FFE708996D
:10348000002081F85000FFE703208DF827000EE0B0
:10349000049818B9FFE700200390FFE7049801386B
:1034A0000490FFE793E700208DF82700FFE79DF8E1
:1034B00027000AB080BD00007047000080B582B0D0
:1034C000009000980138B0F1807F03D3FFE701201E
:1034D000019019E0009801384EF21401CEF200017B
:1034E00008604FF0FF300F2100F058FB4EF218013A
:1034F000CEF20001002008604EF21002CEF200026F
:10350000072111600190FFE7019802B080BD000023
:1035100080B5FDF7F7F880BD80B590B006A80090A3
:103520002821FCF767FE009800230593049303937A
:1035300002930193012206924FF480310791089380
:103540000A9202220D920E914FF4E0110F91FDF7B5
:103550001BFB18B1FFE7FCF7C9FEFFE70F20019046
:1035600002210291002003904FF4806204920590A2
:1035700001A8FDF77FF918B1FFE7FCF7B7FEFFE7F9
:1035800010B080BD7047000080B540F2F000C2F27C
:103590000000FEF75DFF80BD83B0029001910298AC
:1035A00000680090029842F60041C4F2010188428E
:1035B00015D0FFE70298B0F1804F10D0FFE70298D6
:1035C00040F20041C4F20001884208D0FFE70298AF
:1035D00040F60001C4F2000188420AD1FFE70098DA
:1035E00020F0700000900198416800980843009016
:1035F000FFE7029842F60041C4F20101884215D06B
:10360000FFE70298B0F1804F10D0FFE7029840F238
:103610000041C4F20001884208D0FFE7029840F65A
:103620000001C4F2000188420AD1FFE7009820F4AB
:10363000407000900198C168009808430090FFE72F
:10364000009820F080000199496908430090009893
:1036500002990860019880680299C8620198006820
:1036600002998862029842F60041C4F20101884240
:1036700005D1FFE70198006902990863FFE7029905
:103680000120486102980069C00730B1FFE7029944
:10369000086920F001000861FFE703B070470000EF
:1036A00084B0039002910192029800F01F01012062
:1036B00088400090009A0399086A90430862019834
:1036C000029901F01F0100FA01F20399086A104300
:1036D000086204B07047000085B004900391029224
:1036E0000193049880680090009820F47F40009037
:1036F00003980299019A41EA022101430098084384
:10370000009000980499886005B0704783B00290DB
:103710000191029880680090009820F0700000905D
:1037200001980099084340F0070000900098029922
:10373000886003B07047000085B00490039104983E
:10374000006A01900499086A20F001000862049858
:1037500040680090049880690290029820F0700000
:103760000290029820F003000290039801680298EA
:1037700008430290019820F00200019003988168AC
:10378000019808430190049842F60041C4F20101F7
:1037900088420ED1FFE7019820F0080001900398BD
:1037A000C168019808430190019820F0040001903D
:1037B000FFE7049842F60041C4F20101884213D1A8
:1037C000FFE7009820F480700090009820F40070CB
:1037D000009003984169009808430090039881691C
:1037E000009808430090FFE7009804994860029809
:1037F0000499886103984068049948630198049982
:10380000086205B07047000085B0049003910498E9
:10381000006A01900499086A20F010000862049878
:1038200040680090049880690290029820F4E0407B
:103830000290029820F44070029003980168029868
:1038400040EA01200290019820F0200001900398A6
:103850008168019840EA01100190049842F6004105
:10386000C4F2010188420FD1FFE7019820F08000E7
:1038700001900398C168019840EA011001900198F5
:1038800020F040000190FFE7049842F60041C4F2A6
:103890000101884215D1FFE7009820F48060009074
:1038A000009820F40060009003984169009840EA75
:1038B0008100009003988169009840EA810000909F
:1038C000FFE700980499486002980499886103987A
:1038D00040680499886301980499086205B07047AC
:1038E00085B0049003910498006A01900499086AD5
:1038F00020F4807008620498406800900498C069C1
:103900000290029820F070000290029820F00300CC
:10391000029003980168029808430290019820F4ED
:103920000070019003988168019840EA012001909D
:10393000049842F60041C4F2010188420FD1FFE72A
:10394000019820F4006001900398C168019840EA52
:1039500001200190019820F480600190FFE7049815
:1039600042F60041C4F20101884215D1FFE70098F8
:1039700020F480500090009820F4005000900398AC
:103980004169009840EA011000900398816900980D
:1039900040EA01100090FFE70098049948600298FF
:1039A0000499C861039840680499C8630198049910
:1039B000086205B07047000085B004900391049838
:1039C000006A01900499086A20F480500862049803
:1039D000406800900498C0690290029820F4E0408A
:1039E0000290029820F440700290039801680298B7
:1039F00040EA01200290019820F4005001900398C1
:103A00008168019840EA01300190049842F6004133
:103A1000C4F2010188420BD1FFE7009820F48040F6
:103A2000009003984169009840EA81100090FFE7F8
:103A300000980499486002980499C8610398406806
:103A40000499086401980499086205B07047000061
:103A500085B00490039102920498006A0090049942
:103A6000086A20F0010008620498806901900198BA
:103A700020F0F00001900299019840EA01100190B5
:103A8000009820F00A0000900399009808430090E5
:103A900001980499886100980499086205B07047FC
:103AA00085B00490039102920498006A00900499F2
:103AB000086A20F01000086204988069019001985B
:103AC00020F4704001900299019840EA0130019081
:103AD000009820F0A00000900399009840EA01109F
:103AE000009001980499886100980499086205B0D3
:103AF0007047000080B582B0FCF700FC0090FCF736
:103B000017FC01460098084400F0FBF843F26E42AF
:103B1000CBF2807248F24023C3F6E87300F008F954
:103B200000220023C3F6E07300F002F900F0B8F8B9
:103B3000014640F21C20C2F200000160016840F220
:103B40002020C2F200000190006800F0EFF9019916
:103B5000086002B080BD0000FFE7FEE781B08DF88D
:103B600003009DF9030000280ED4FFE79DF9031020
:103B700001F01F02012090404A094EF20011CEF2DE
:103B8000000141F82200FFE701B070474EF60C50EB
:103B9000CEF200000068C0F30220704782B08DF8BA
:103BA000070000919DF9070000280AD4FFE700985C
:103BB00000019DF907104EF20042CEF20002885437
:103BC0000BE0009800019DF8071001F00F014EF680
:103BD0001452CEF200028854FFE702B07047000092
:103BE00083B00290029800F0070000904EF60C514E
:103BF000CEF200010868019001984FF6FF021040D4
:103C000001900198009A40EA02200022C0F2FA5284
:103C1000104301900198086003B0704780B584B0EC
:103C200000200390FCF77CFDFFF776FCFFF7C0F85F
:103C3000FFF7D4F9FFF750F9FFF792F9FFF762FAAF
:103C4000FFF722F9FFF7A0FAFCF73CFBFEF772FF43
:103C500040F60040C4F201004FF480510122FCF70D
:103C600033FDFEF715FF40F2F000C2F20000FEF750
:103C7000EDF8FFE740F60000C4F2010001904FF4B8
:103C8000806102910122FCF71FFD4FF4FA70FCF7EE
:103C900069FB019802990022FCF716FDEAE7000093
:103CA00021F0004201F00043A2F16052B2F5801F02
:103CB00028BFD2F17F6C0BD95FEA001C43EAC20235
:103CC00042EB507018BF704728BF20F001007047CA
:103CD000B2F5801FBCBF184670474FEA410C1CF577
:103CE000001F02D2084600F024BB70B500F0CAF8ED
:103CF00000000089FFF7F6BF4FF00040A0F58000FC
:103D0000704710F0004248BF4042B0FA80F310FA0A
:103D100003F10AD0C3F11D0303F5806302EB0352E4
:103D20004FEA415002EBD12170474FF0000070473D
:103D300070B5DFF848C11CEA111E1EBF1CEA13153E
:103D40009EEA0C0F95EA0C0F00F06F8081EA0304E5
:103D50004EEAD47EAE4421EA4C1123EA4C1341F4DE
:103D6000801143F48013AEF17F7EA1FB024CA0FBD7
:103D70000365361955EB0C05A1FB034C4CF1000310
:103D8000A0FB021C16EB0C06654153F1000309422F
:103D900018BF46F0010613F4007F0BD14FEA033140
:103DA0004FEA053041EA155140EA165034036FF0EE
:103DB00003020AE04FEAC3214FEAC52041EA555108
:103DC00040EA5650F4026FF0020202EB2E4201EB81
:103DD000025585EACE710AD05FEA440C18BF24F080
:103DE000004450F1000041F1000120EAD47040F29B
:103DF000FE7C624500D270BDA84214BF4FF08044E3
:103E00004FF04044002E08BF0024BEF1806FA8BFD1
:103E1000A1F1C041BDE8704080F2828001F1C04153
:103E200001F000414FF0000070470CEA13159EEAC4
:103E30000C0F18BF95EA0C0F06D081EA030E4FF065
:103E400000000EF0004170BD00F01CF88900013E3A
:103E500000F007B800F009B84FEA430C5FEA5C5C79
:103E600008D081EA030100F05BB84FEA410C5FEA39
:103E70005C5CF6D102494FF0000070470000FF077C
:103E80000000F87F0EF1020E2EF0030E5EF8046BB8
:103E9000364205D4012A43EB030515F5001F12D85D
:103EA000012841EB010C1CF5001F0CD80ED14FEA84
:103EB000D17C0CEB4C0C0CF1020C15F5001F08BF6B
:103EC0004CEBD37C04E04FF0080C01E04FEAD37CCC
:103ED0000CEB4C0526FA05F606F00706B6F1040CC5
:103EE00006D20EEB860CBDE870404CF0010C60472A
:103EF000DFE80CF0090B02024FF00041A1F50021B0
:103F00004FF0000070BD19461046012851EB010426
:103F100018BFD4F5001484BF002001F0004170BD2B
:103F20000808A0F500114FEA3101704790EA010F2F
:103F300048BF81F0004100F10882421A3CBF801A5C
:103F400089184FEAD052A2EBD1534FF07F4C1CEAB4
:103F5000410F18BF9CEA026F00F03B804FF0004C0D
:103F60004CEA00204CEA012121FA03FC10EB0C0C76
:103F70001ED202F1FF325FEA1C2040EBC25038BF74
:103F800070471CF07F0F4FEA400C18BFBCF17F4F09
:103F900038BF7047C3F12003994008BF20F00100EB
:103FA000BCF17F4F38BF7047A0F1C04000F0C1B9ED
:103FB0004FEA3C00000A40EBC25028BF1CF0FF0F44
:103FC0004FEA400CE6D018BFBCF17F4F38BF7047B6
:103FD000EAE79CEA026F05D010EA5C0F08BF00F028
:103FE0000040704710B500F05EF900BF64FBBE3EB4
:103FF0004FF47F0C1CEAD0121EBF1CEAD11392EAC8
:104000000C0F93EA0C0F00F0858090EA010F48BF77
:1040100042F4807240F4000C41F400002CF07F4127
:1040200020F07F4000B5A2EB030281420FF2081C92
:10403000ACEB504E9EF800E0C0F100004FEA4E0E8F
:1040400000FB0EFC38BF49004FEA2C1C0CFB0EF3A2
:104050004FEACE1E0EEB635E4FEA112C0EFB0CFCFA
:104060004FEAC1214FEA1C5300FB031102F5FA028B
:104070004FEA112C0EFB0CFC4FEA01314FEADC4CED
:1040800000FB0C1142EB2242C14228BF09184CEB45
:1040900003335DF804EB10EB410143EBC250B2F582
:1040A0007C0F38BF704729D512F0F00F1CBF00F10C
:1040B000C04000F00040704700818283848586877D
:1040C00088898B8C8D8E8F919293959697999A9CD7
:1040D0009D9FA0A2A3A5A7A8AAACAEB0B2B3B5B746
:1040E000B9BCBEC0C2C5C7C9CCCED1D4D7D9DCDF1C
:1040F000E2E6E9ECF0F3F7FAFE0000004FEA400CCC
:104100000CF1807CBCF17E4F28BF7047B0F1C040FD
:1041100000F00FB90CEAD11390EA010F48BF42F446
:104120008072624538BF634507D213F47F0F16D003
:1041300080EA010000F00040704710B500F0B3F8CD
:10414000097EFC3E00F005B880EA010000F0004066
:10415000704780EA010000F0004000F0EAB812F475
:104160007F0F04BF0248704780EA010000F0E1B809
:104170000000C07F10F0004148BF4042B0FA80F319
:1041800010FA03F2C3F19D030BD051EAC35101EBC6
:104190001220530638BF704700F1010008BF20F01D
:1041A000010070474FF47F0C1CEAD0121EBF1CEABE
:1041B000D11392EA0C0F93EA0C0F00F0478090EABB
:1041C000010F48BF42F480724FF0004C4CEA0020CF
:1041D0004CEA012102EB0302A0FB0113A2F500024D
:1041E000002918BF43F001035B0028BF4FEA3303E7
:1041F00042EB22425FEA132C4CEBC2502EBFBCEBC9
:10420000436FB2F57C0F70474FEA036CBCF1004F6F
:1042100008BF20F00100B2F57C0F38BF70470BD506
:1042200082F0FF0212F5803FC8BF704700F1C04026
:10423000D8BF00F00040704700F5000C5FEA4C0C5E
:1042400048BF7047B0F1C04000F073B80CEAD1131A
:1042500090EA010F48BF42F48072624538BF63455F
:1042600004D280EA010000F00040704710B500F071
:104270001AF800BF8900013E00F007B800F009B845
:104280005FEA410C5FEA1C6C08D080EA010000F094
:1042900050B85FEA400C5FEA1C6CF6D14FF000406A
:1042A000A0F5800070470EF1020E2EF0030E5EF8AE
:1042B000044B244204D44FEA4102B2F17F4F11D89B
:1042C0004FEA4003B3F17F4F0CD80ED14FEAD07CB8
:1042D0000CEB4C0C0CF1020CB2F17F4F08BF4CEB15
:1042E000D17C04E04FF0080C01E04FEAD17C0CEBEC
:1042F0004C0324FA03F404F00704B4F1040C06D2CE
:104300000EEB840CBDE810404CF0010C6047DFE878
:104310000CF0070802024FF00040A0F5800010BD2D
:104320000846420018BFD2F1807288BF00F00040FA
:1043300010BDFF2141EAD050C005704790EA010F3F
:1043400048BF81F000413FF5F8AD421A04D882F031
:104350000042A0EB020011444FEAD052A2EBD1532D
:104360004FF07F4C1CEA410F18BF9CEA026F4AD005
:104370004FF0004C4CEA00204CEA012121FA03FCEA
:10438000B0EB0C0C0FD412F0FE0F36D05FEA4C00ED
:104390001DD5001240EBC25038BF70471CF03F0FD4
:1043A00018BF70470BE05FEA1C20A2F1010240EB4E
:1043B000C25038BF70471CF07F0F18BF7047C3F161
:1043C0002003994014BF401E20F0010070474FEABF
:1043D0001223800808BF7047B0FA80FCA2EB0C02E1
:1043E000CCF1280C60FA0CF093EA122F04BF00EB1A
:1043F000C25070474FEAC3707047130A5FEADC107F
:1044000008BF7047F6E79CEA026F04D010EA5C0F21
:1044100008BF0020704710B5FFF745FF40DFF63EAC
:1044200081F0004070470000000000000000010221
:1044300003040607080902030405060708090A0B16
:104440000C0D0E0F1010010268440008000000203F
:1044500010000000500100087844000810000020FF
:10446000180800007001000800127A000100000026
:08447000100000000000000034
:04000005080000ED02
:00000001FF
